{
  "address": "0xb17e0754E5CBe15999F5C3174B6604a3ec6A818A",
  "abi": [
    {
      "inputs": [
        {
          "internalType": "contract IBLPStakingPool",
          "name": "_stakingPool",
          "type": "address"
        },
        {
          "internalType": "contract IERC20Upgradeable",
          "name": "_rewardToken",
          "type": "address"
        },
        {
          "internalType": "address",
          "name": "_treasury",
          "type": "address"
        }
      ],
      "stateMutability": "nonpayable",
      "type": "constructor"
    },
    {
      "inputs": [],
      "name": "BLPReward_initialize__RewardTokenIsZeroAddress",
      "type": "error"
    },
    {
      "inputs": [],
      "name": "BLPReward_initialize__StakingTokenIsZeroAddress",
      "type": "error"
    },
    {
      "inputs": [],
      "name": "BLPReward_initialize__TreasuryIsZeroAddress",
      "type": "error"
    },
    {
      "inputs": [],
      "name": "BLPReward_setTreasury__SameTreasuryAddress",
      "type": "error"
    },
    {
      "inputs": [],
      "name": "BLPReward_setTreasury__TreasuryIsZeroAddress",
      "type": "error"
    },
    {
      "anonymous": false,
      "inputs": [
        {
          "indexed": true,
          "internalType": "address",
          "name": "previousOwner",
          "type": "address"
        },
        {
          "indexed": true,
          "internalType": "address",
          "name": "newOwner",
          "type": "address"
        }
      ],
      "name": "NewOwner",
      "type": "event"
    },
    {
      "anonymous": false,
      "inputs": [
        {
          "indexed": true,
          "internalType": "address",
          "name": "oldPendingOwner",
          "type": "address"
        },
        {
          "indexed": true,
          "internalType": "address",
          "name": "newPendingOwner",
          "type": "address"
        }
      ],
      "name": "NewPendingOwner",
      "type": "event"
    },
    {
      "anonymous": false,
      "inputs": [
        {
          "indexed": true,
          "internalType": "address",
          "name": "user",
          "type": "address"
        },
        {
          "indexed": true,
          "internalType": "uint256",
          "name": "reward",
          "type": "uint256"
        }
      ],
      "name": "RewardPaid",
      "type": "event"
    },
    {
      "anonymous": false,
      "inputs": [
        {
          "indexed": false,
          "internalType": "uint256",
          "name": "oldRewardRate",
          "type": "uint256"
        },
        {
          "indexed": false,
          "internalType": "uint256",
          "name": "newRewardRate",
          "type": "uint256"
        }
      ],
      "name": "RewardRateUpdated",
      "type": "event"
    },
    {
      "anonymous": false,
      "inputs": [
        {
          "indexed": false,
          "internalType": "address",
          "name": "oldTreasury",
          "type": "address"
        },
        {
          "indexed": false,
          "internalType": "address",
          "name": "newTreasury",
          "type": "address"
        }
      ],
      "name": "TreasuryUpdated",
      "type": "event"
    },
    {
      "inputs": [],
      "name": "_acceptOwner",
      "outputs": [],
      "stateMutability": "nonpayable",
      "type": "function"
    },
    {
      "inputs": [
        {
          "internalType": "address payable",
          "name": "newPendingOwner",
          "type": "address"
        }
      ],
      "name": "_setPendingOwner",
      "outputs": [],
      "stateMutability": "nonpayable",
      "type": "function"
    },
    {
      "inputs": [
        {
          "internalType": "address",
          "name": "_newTreasury",
          "type": "address"
        }
      ],
      "name": "_setTreasury",
      "outputs": [],
      "stateMutability": "nonpayable",
      "type": "function"
    },
    {
      "inputs": [
        {
          "internalType": "address",
          "name": "_account",
          "type": "address"
        }
      ],
      "name": "earned",
      "outputs": [
        {
          "internalType": "uint256",
          "name": "",
          "type": "uint256"
        }
      ],
      "stateMutability": "view",
      "type": "function"
    },
    {
      "inputs": [
        {
          "internalType": "address",
          "name": "_account",
          "type": "address"
        }
      ],
      "name": "getReward",
      "outputs": [],
      "stateMutability": "nonpayable",
      "type": "function"
    },
    {
      "inputs": [
        {
          "internalType": "contract IBLPStakingPool",
          "name": "_stakingPool",
          "type": "address"
        },
        {
          "internalType": "contract IERC20Upgradeable",
          "name": "_rewardToken",
          "type": "address"
        },
        {
          "internalType": "address",
          "name": "_treasury",
          "type": "address"
        }
      ],
      "name": "initialize",
      "outputs": [],
      "stateMutability": "nonpayable",
      "type": "function"
    },
    {
      "inputs": [],
      "name": "lastRateUpdateTime",
      "outputs": [
        {
          "internalType": "uint256",
          "name": "",
          "type": "uint256"
        }
      ],
      "stateMutability": "view",
      "type": "function"
    },
    {
      "inputs": [],
      "name": "lastUpdateTime",
      "outputs": [
        {
          "internalType": "uint256",
          "name": "",
          "type": "uint256"
        }
      ],
      "stateMutability": "view",
      "type": "function"
    },
    {
      "inputs": [],
      "name": "owner",
      "outputs": [
        {
          "internalType": "address payable",
          "name": "",
          "type": "address"
        }
      ],
      "stateMutability": "view",
      "type": "function"
    },
    {
      "inputs": [],
      "name": "pendingOwner",
      "outputs": [
        {
          "internalType": "address payable",
          "name": "",
          "type": "address"
        }
      ],
      "stateMutability": "view",
      "type": "function"
    },
    {
      "inputs": [
        {
          "internalType": "contract IERC20Upgradeable",
          "name": "_token",
          "type": "address"
        },
        {
          "internalType": "uint256",
          "name": "_amount",
          "type": "uint256"
        },
        {
          "internalType": "address",
          "name": "_to",
          "type": "address"
        }
      ],
      "name": "rescueTokens",
      "outputs": [],
      "stateMutability": "nonpayable",
      "type": "function"
    },
    {
      "inputs": [],
      "name": "rewardDistributed",
      "outputs": [
        {
          "internalType": "uint256",
          "name": "",
          "type": "uint256"
        }
      ],
      "stateMutability": "view",
      "type": "function"
    },
    {
      "inputs": [],
      "name": "rewardDistributedStored",
      "outputs": [
        {
          "internalType": "uint256",
          "name": "",
          "type": "uint256"
        }
      ],
      "stateMutability": "view",
      "type": "function"
    },
    {
      "inputs": [],
      "name": "rewardPerToken",
      "outputs": [
        {
          "internalType": "uint256",
          "name": "",
          "type": "uint256"
        }
      ],
      "stateMutability": "view",
      "type": "function"
    },
    {
      "inputs": [],
      "name": "rewardPerTokenStored",
      "outputs": [
        {
          "internalType": "uint256",
          "name": "",
          "type": "uint256"
        }
      ],
      "stateMutability": "view",
      "type": "function"
    },
    {
      "inputs": [],
      "name": "rewardRate",
      "outputs": [
        {
          "internalType": "uint256",
          "name": "",
          "type": "uint256"
        }
      ],
      "stateMutability": "view",
      "type": "function"
    },
    {
      "inputs": [],
      "name": "rewardToken",
      "outputs": [
        {
          "internalType": "contract IERC20Upgradeable",
          "name": "",
          "type": "address"
        }
      ],
      "stateMutability": "view",
      "type": "function"
    },
    {
      "inputs": [
        {
          "internalType": "address",
          "name": "",
          "type": "address"
        }
      ],
      "name": "rewards",
      "outputs": [
        {
          "internalType": "uint256",
          "name": "",
          "type": "uint256"
        }
      ],
      "stateMutability": "view",
      "type": "function"
    },
    {
      "inputs": [
        {
          "internalType": "uint256",
          "name": "_rewardRate",
          "type": "uint256"
        }
      ],
      "name": "setRewardRate",
      "outputs": [],
      "stateMutability": "nonpayable",
      "type": "function"
    },
    {
      "inputs": [],
      "name": "stakingPool",
      "outputs": [
        {
          "internalType": "contract IBLPStakingPool",
          "name": "",
          "type": "address"
        }
      ],
      "stateMutability": "view",
      "type": "function"
    },
    {
      "inputs": [],
      "name": "treasury",
      "outputs": [
        {
          "internalType": "address",
          "name": "",
          "type": "address"
        }
      ],
      "stateMutability": "view",
      "type": "function"
    },
    {
      "inputs": [
        {
          "internalType": "address",
          "name": "_account",
          "type": "address"
        }
      ],
      "name": "updateReward",
      "outputs": [],
      "stateMutability": "nonpayable",
      "type": "function"
    },
    {
      "inputs": [
        {
          "internalType": "address",
          "name": "",
          "type": "address"
        }
      ],
      "name": "userRewardPerTokenPaid",
      "outputs": [
        {
          "internalType": "uint256",
          "name": "",
          "type": "uint256"
        }
      ],
      "stateMutability": "view",
      "type": "function"
    }
  ],
  "transactionHash": "0xc4ee172c5ae1edf60ed571da2b8111a1cf1caa4938bd5e719d7ae539e2e0e18a",
  "args": [
    "0xf42cAb46B2eD34a0e80fCD8128422cbC217E9cE2",
    "0x826dC9032A77D4442EaF6a2f2D3FAa21b1042BE2",
    "0x6b29b8af9AF126170513AE6524395E09025b214E"
  ],
  "numDeployments": 1,
  "solcInputHash": "30a17ad853bb2ece92d8a96205c61823",
  "bytecode": "0x608060405260006037553480156200001657600080fd5b506040516200142f3803806200142f833981016040819052620000399162000232565b620000468383836200004f565b50505062000286565b60005460ff1615620000be5760405162461bcd60e51b815260206004820152602e60248201527f496e697469616c697a61626c653a20636f6e747261637420697320616c72656160448201526d191e481a5b9a5d1a585b1a5e995960921b606482015260840160405180910390fd5b6001600160a01b038316620000e65760405163a70a8d0560e01b815260040160405180910390fd5b6001600160a01b0382166200010e57604051633efd89a760e21b815260040160405180910390fd5b6001600160a01b0381166200013657604051636fad160560e01b815260040160405180910390fd5b62000140620001d1565b603480546001600160a01b038581166001600160a01b03199283161790925560358054858416908316179055603680549284169290911682179055426038819055603a55604080516000815260208101929092527f4ab5be82436d353e61ca18726e984e561f5c1cc7c6d38b29d2553c790434705a910160405180910390a150506000805460ff1916600117905550565b60008054610100600160a81b0319163361010081029190911782556040519091907f70aea8d848e8a90fb7661b227dc522eb6395c3dac71b63cb59edd5c9899b2364908290a3565b6001600160a01b03811681146200022f57600080fd5b50565b6000806000606084860312156200024857600080fd5b8351620002558162000219565b6020850151909350620002688162000219565b60408501519092506200027b8162000219565b809150509250925092565b61119980620002966000396000f3fe608060405234801561001057600080fd5b506004361061014c5760003560e01c80639e447fc6116100c3578063df136d651161007c578063df136d65146102b7578063e30c3978146102c0578063e9483ac0146102d3578063f7bc2afd146102db578063f7c618c1146102e4578063fc4d33f9146102f757600080fd5b80639e447fc61461025a578063b37fd1901461026d578063c00007b014610280578063c0c53b8b14610293578063c8f33c91146102a6578063cd3daf9d146102af57600080fd5b806361d027b31161011557806361d027b3146101e0578063632447c9146101f35780636e96dfd7146102065780637b0a47ee146102195780638b876347146102225780638da5cb5b1461024257600080fd5b80628cc262146101515780630700037d146101775780630762bed2146101975780630c56ae3b146101a05780632a08922c146101cb575b600080fd5b61016461015f366004610f2d565b6102ff565b6040519081526020015b60405180910390f35b610164610185366004610f2d565b603d6020526000908152604090205481565b610164603a5481565b6034546101b3906001600160a01b031681565b6040516001600160a01b03909116815260200161016e565b6101de6101d9366004610f2d565b6103d2565b005b6036546101b3906001600160a01b031681565b6101de610201366004610f2d565b6104cb565b6101de610214366004610f2d565b610521565b61016460375481565b610164610230366004610f2d565b603c6020526000908152604090205481565b6000546101b39061010090046001600160a01b031681565b6101de610268366004610f4a565b61064e565b6101de61027b366004610f63565b6106d4565b6101de61028e366004610f2d565b61071c565b6101de6102a1366004610fa5565b6107b4565b61016460385481565b61016461092c565b61016460395481565b6001546101b3906001600160a01b031681565b610164610a57565b610164603b5481565b6035546101b3906001600160a01b031681565b6101de610a80565b6001600160a01b0381166000908152603d6020908152604080832054603c9092528220546103cc91906103c690670de0b6b3a7640000906103c09061034c9061034661092c565b90610b96565b6034546040516370a0823160e01b81526001600160a01b038a81166004830152909116906370a0823190602401602060405180830381865afa158015610396573d6000803e3d6000fd5b505050506040513d601f19601f820116820180604052508101906103ba9190610fe5565b90610ba9565b90610bb5565b90610bc1565b92915050565b60005461010090046001600160a01b0316331461040a5760405162461bcd60e51b815260040161040190610ffe565b60405180910390fd5b6036546001600160a01b0390811690821661043857604051633a4665d560e21b815260040160405180910390fd5b816001600160a01b0316816001600160a01b0316141561046b5760405163160a0cff60e21b815260040160405180910390fd5b603680546001600160a01b0319166001600160a01b0384811691821790925560408051928416835260208301919091527f4ab5be82436d353e61ca18726e984e561f5c1cc7c6d38b29d2553c790434705a91015b60405180910390a15050565b6104d361092c565b603955426038556001600160a01b0381161561051e576104f2816102ff565b6001600160a01b0382166000908152603d6020908152604080832093909355603954603c909152919020555b50565b60005461010090046001600160a01b031633146105505760405162461bcd60e51b815260040161040190610ffe565b6001600160a01b0381161580159061057657506001546001600160a01b03828116911614155b6105fc5760405162461bcd60e51b815260206004820152604b60248201527f5f73657450656e64696e674f776e65723a204e6577206f77656e722063616e2060448201527f6e6f74206265207a65726f206164647265737320616e64206f776e657220686160648201526a73206265656e207365742160a81b608482015260a401610401565b600180546001600160a01b038381166001600160a01b0319831681179093556040519116919082907fb3d55174552271a4f1aaf36b72f50381e892171636b3fb5447fe00e995e7a37b90600090a35050565b60005461010090046001600160a01b0316331461067d5760405162461bcd60e51b815260040161040190610ffe565b610685610a57565b603b5542603a5561069660006104cb565b603780549082905560408051828152602081018490527fc390a98ace15a7bb6bab611eedfdbb2685043b241a869420043cdfb23ccfee5091016104bf565b60005461010090046001600160a01b031633146107035760405162461bcd60e51b815260040161040190610ffe565b6107176001600160a01b0384168284610bcd565b505050565b610725816104cb565b6001600160a01b0381166000908152603d602052604090205480156107b0576001600160a01b038083166000908152603d602052604081208190555460355461077992908116916101009004168484610c30565b60405181906001600160a01b038416907fe2403640ba68fed3a2f88b7557551d1993f84b99bb10ff833f0cf8db0c5e048690600090a35b5050565b60005460ff161561081e5760405162461bcd60e51b815260206004820152602e60248201527f496e697469616c697a61626c653a20636f6e747261637420697320616c72656160448201526d191e481a5b9a5d1a585b1a5e995960921b6064820152608401610401565b6001600160a01b0383166108455760405163a70a8d0560e01b815260040160405180910390fd5b6001600160a01b03821661086c57604051633efd89a760e21b815260040160405180910390fd5b6001600160a01b03811661089357604051636fad160560e01b815260040160405180910390fd5b61089b610c6e565b603480546001600160a01b038581166001600160a01b03199283161790925560358054858416908316179055603680549284169290911682179055426038819055603a55604080516000815260208101929092527f4ab5be82436d353e61ca18726e984e561f5c1cc7c6d38b29d2553c790434705a910160405180910390a150506000805460ff1916600117905550565b603454604080516318160ddd60e01b815290516000926001600160a01b0316916318160ddd9160048083019260209291908290030181865afa158015610976573d6000803e3d6000fd5b505050506040513d601f19601f8201168201806040525081019061099a9190610fe5565b6109a5575060395490565b610a52610a49603460009054906101000a90046001600160a01b03166001600160a01b03166318160ddd6040518163ffffffff1660e01b8152600401602060405180830381865afa1580156109fe573d6000803e3d6000fd5b505050506040513d601f19601f82011682018060405250810190610a229190610fe5565b6103c0670de0b6b3a76400006103ba6037546103ba60385442610b9690919063ffffffff16565b60395490610bc1565b905090565b6000610a52610a776037546103ba603a5442610b9690919063ffffffff16565b603b5490610bc1565b6001546001600160a01b03163314610ae85760405162461bcd60e51b815260206004820152602560248201527f5f6163636570744f776e65723a204f6e6c7920666f722070656e64696e67206f604482015264776e65722160d81b6064820152608401610401565b60008054600180546001600160a01b03818116610100818102610100600160a81b03198716178088556001600160a01b031990941690945560405194849004821695909493909204169184917f70aea8d848e8a90fb7661b227dc522eb6395c3dac71b63cb59edd5c9899b236491a36001546040516001600160a01b03918216918316907fb3d55174552271a4f1aaf36b72f50381e892171636b3fb5447fe00e995e7a37b90600090a35050565b6000610ba28284611056565b9392505050565b6000610ba2828461106d565b6000610ba2828461108c565b6000610ba282846110ae565b6040516001600160a01b03831660248201526044810182905261071790849063a9059cbb60e01b906064015b60408051601f198184030181529190526020810180516001600160e01b03166001600160e01b031990931692909217909152610cb6565b6040516001600160a01b0380851660248301528316604482015260648101829052610c689085906323b872dd60e01b90608401610bf9565b50505050565b60008054610100600160a81b0319163361010081029190911782556040519091907f70aea8d848e8a90fb7661b227dc522eb6395c3dac71b63cb59edd5c9899b2364908290a3565b6000610d0b826040518060400160405280602081526020017f5361666545524332303a206c6f772d6c6576656c2063616c6c206661696c6564815250856001600160a01b0316610d8b9092919063ffffffff16565b9050805160001480610d2c575080806020019051810190610d2c91906110c6565b6107175760405162461bcd60e51b815260206004820152602a60248201527f5361666545524332303a204552433230206f7065726174696f6e20646964206e6044820152691bdd081cdd58d8d9595960b21b6064820152608401610401565b6060610d9a8484600085610da2565b949350505050565b606082471015610e035760405162461bcd60e51b815260206004820152602660248201527f416464726573733a20696e73756666696369656e742062616c616e636520666f6044820152651c8818d85b1b60d21b6064820152608401610401565b600080866001600160a01b03168587604051610e1f9190611114565b60006040518083038185875af1925050503d8060008114610e5c576040519150601f19603f3d011682016040523d82523d6000602084013e610e61565b606091505b5091509150610e7287838387610e7d565b979650505050505050565b60608315610ee9578251610ee2576001600160a01b0385163b610ee25760405162461bcd60e51b815260206004820152601d60248201527f416464726573733a2063616c6c20746f206e6f6e2d636f6e74726163740000006044820152606401610401565b5081610d9a565b610d9a8383815115610efe5781518083602001fd5b8060405162461bcd60e51b81526004016104019190611130565b6001600160a01b038116811461051e57600080fd5b600060208284031215610f3f57600080fd5b8135610ba281610f18565b600060208284031215610f5c57600080fd5b5035919050565b600080600060608486031215610f7857600080fd5b8335610f8381610f18565b9250602084013591506040840135610f9a81610f18565b809150509250925092565b600080600060608486031215610fba57600080fd5b8335610fc581610f18565b92506020840135610fd581610f18565b91506040840135610f9a81610f18565b600060208284031215610ff757600080fd5b5051919050565b60208082526022908201527f6f6e6c794f776e65723a2063616c6c6572206973206e6f7420746865206f776e60408201526132b960f11b606082015260800190565b634e487b7160e01b600052601160045260246000fd5b60008282101561106857611068611040565b500390565b600081600019048311821515161561108757611087611040565b500290565b6000826110a957634e487b7160e01b600052601260045260246000fd5b500490565b600082198211156110c1576110c1611040565b500190565b6000602082840312156110d857600080fd5b81518015158114610ba257600080fd5b60005b838110156111035781810151838201526020016110eb565b83811115610c685750506000910152565b600082516111268184602087016110e8565b9190910192915050565b602081526000825180602084015261114f8160408501602087016110e8565b601f01601f1916919091016040019291505056fea2646970667358221220e8af6fe35ae63dc06fe91eac0e18b53b1168dc6a830f969eea3dec8c92c2fc9564736f6c634300080a0033",
  "devdoc": {
    "kind": "dev",
    "methods": {
      "_acceptOwner()": {
        "details": "Accepts the admin rights, but only for pendingOwenr."
      },
      "_setPendingOwner(address)": {
        "details": "Transfer contract control to a new owner. The newPendingOwner must call `_acceptOwner` to finish the transfer.",
        "params": {
          "newPendingOwner": "New pending owner."
        }
      }
    },
    "version": 1
  },
  "userdoc": {
    "kind": "user",
    "methods": {
      "_setPendingOwner(address)": {
        "notice": "Base on the inputing parameter `newPendingOwner` to check the exact error reason."
      }
    },
    "version": 1
  },
  "storageLayout": {
    "storage": [
      {
        "astId": 1270,
        "contract": "src/Stake/BLPReward.sol:BLPReward",
        "label": "_initialized",
        "offset": 0,
        "slot": "0",
        "type": "t_bool"
      },
      {
        "astId": 1292,
        "contract": "src/Stake/BLPReward.sol:BLPReward",
        "label": "owner",
        "offset": 1,
        "slot": "0",
        "type": "t_address_payable"
      },
      {
        "astId": 1295,
        "contract": "src/Stake/BLPReward.sol:BLPReward",
        "label": "pendingOwner",
        "offset": 0,
        "slot": "1",
        "type": "t_address_payable"
      },
      {
        "astId": 1427,
        "contract": "src/Stake/BLPReward.sol:BLPReward",
        "label": "__gap",
        "offset": 0,
        "slot": "2",
        "type": "t_array(t_uint256)50_storage"
      },
      {
        "astId": 1451,
        "contract": "src/Stake/BLPReward.sol:BLPReward",
        "label": "stakingPool",
        "offset": 0,
        "slot": "52",
        "type": "t_contract(IBLPStakingPool)1264"
      },
      {
        "astId": 1454,
        "contract": "src/Stake/BLPReward.sol:BLPReward",
        "label": "rewardToken",
        "offset": 0,
        "slot": "53",
        "type": "t_contract(IERC20Upgradeable)77"
      },
      {
        "astId": 1456,
        "contract": "src/Stake/BLPReward.sol:BLPReward",
        "label": "treasury",
        "offset": 0,
        "slot": "54",
        "type": "t_address"
      },
      {
        "astId": 1459,
        "contract": "src/Stake/BLPReward.sol:BLPReward",
        "label": "rewardRate",
        "offset": 0,
        "slot": "55",
        "type": "t_uint256"
      },
      {
        "astId": 1461,
        "contract": "src/Stake/BLPReward.sol:BLPReward",
        "label": "lastUpdateTime",
        "offset": 0,
        "slot": "56",
        "type": "t_uint256"
      },
      {
        "astId": 1463,
        "contract": "src/Stake/BLPReward.sol:BLPReward",
        "label": "rewardPerTokenStored",
        "offset": 0,
        "slot": "57",
        "type": "t_uint256"
      },
      {
        "astId": 1465,
        "contract": "src/Stake/BLPReward.sol:BLPReward",
        "label": "lastRateUpdateTime",
        "offset": 0,
        "slot": "58",
        "type": "t_uint256"
      },
      {
        "astId": 1467,
        "contract": "src/Stake/BLPReward.sol:BLPReward",
        "label": "rewardDistributedStored",
        "offset": 0,
        "slot": "59",
        "type": "t_uint256"
      },
      {
        "astId": 1471,
        "contract": "src/Stake/BLPReward.sol:BLPReward",
        "label": "userRewardPerTokenPaid",
        "offset": 0,
        "slot": "60",
        "type": "t_mapping(t_address,t_uint256)"
      },
      {
        "astId": 1475,
        "contract": "src/Stake/BLPReward.sol:BLPReward",
        "label": "rewards",
        "offset": 0,
        "slot": "61",
        "type": "t_mapping(t_address,t_uint256)"
      }
    ],
    "types": {
      "t_address": {
        "encoding": "inplace",
        "label": "address",
        "numberOfBytes": "20"
      },
      "t_address_payable": {
        "encoding": "inplace",
        "label": "address payable",
        "numberOfBytes": "20"
      },
      "t_array(t_uint256)50_storage": {
        "base": "t_uint256",
        "encoding": "inplace",
        "label": "uint256[50]",
        "numberOfBytes": "1600"
      },
      "t_bool": {
        "encoding": "inplace",
        "label": "bool",
        "numberOfBytes": "1"
      },
      "t_contract(IBLPStakingPool)1264": {
        "encoding": "inplace",
        "label": "contract IBLPStakingPool",
        "numberOfBytes": "20"
      },
      "t_contract(IERC20Upgradeable)77": {
        "encoding": "inplace",
        "label": "contract IERC20Upgradeable",
        "numberOfBytes": "20"
      },
      "t_mapping(t_address,t_uint256)": {
        "encoding": "mapping",
        "key": "t_address",
        "label": "mapping(address => uint256)",
        "numberOfBytes": "32",
        "value": "t_uint256"
      },
      "t_uint256": {
        "encoding": "inplace",
        "label": "uint256",
        "numberOfBytes": "32"
      }
    }
  }
}