{
  "address": "0x74fE112170Bf2bf009f6D4DddDdCFE4CC5A34BA6",
  "abi": [
    {
      "inputs": [
        {
          "internalType": "contract IERC20Upgradeable",
          "name": "_stakingToken",
          "type": "address"
        }
      ],
      "stateMutability": "nonpayable",
      "type": "constructor"
    },
    {
      "inputs": [],
      "name": "BLPStakingPool_setRewardDistributorManager__InvalidRewardDistributorManager",
      "type": "error"
    },
    {
      "inputs": [],
      "name": "BaseStakingPool_addRewardDistributor__RewardDistributorAlreadyExist",
      "type": "error"
    },
    {
      "inputs": [],
      "name": "BaseStakingPool_addRewardDistributor__RewardDistributorIsZeroAddress",
      "type": "error"
    },
    {
      "inputs": [],
      "name": "BaseStakingPool_initialize__StakingTokenIsZeroAddress",
      "type": "error"
    },
    {
      "inputs": [],
      "name": "BaseStakingPool_removeRewardDistributor__RewardDistributorDoesNotExist",
      "type": "error"
    },
    {
      "inputs": [],
      "name": "BaseStakingPool_stake__StakeAmountIsZero",
      "type": "error"
    },
    {
      "inputs": [],
      "name": "BaseStakingPool_withdraw__WithdrawAmountIsZero",
      "type": "error"
    },
    {
      "anonymous": false,
      "inputs": [
        {
          "indexed": false,
          "internalType": "address",
          "name": "_newRewardDistributor",
          "type": "address"
        }
      ],
      "name": "AddRewardDistributor",
      "type": "event"
    },
    {
      "anonymous": false,
      "inputs": [
        {
          "indexed": true,
          "internalType": "address",
          "name": "previousOwner",
          "type": "address"
        },
        {
          "indexed": true,
          "internalType": "address",
          "name": "newOwner",
          "type": "address"
        }
      ],
      "name": "NewOwner",
      "type": "event"
    },
    {
      "anonymous": false,
      "inputs": [
        {
          "indexed": true,
          "internalType": "address",
          "name": "oldPendingOwner",
          "type": "address"
        },
        {
          "indexed": true,
          "internalType": "address",
          "name": "newPendingOwner",
          "type": "address"
        }
      ],
      "name": "NewPendingOwner",
      "type": "event"
    },
    {
      "anonymous": false,
      "inputs": [
        {
          "indexed": false,
          "internalType": "address",
          "name": "newRewardDistributorManager",
          "type": "address"
        }
      ],
      "name": "NewRewardDistributorManager",
      "type": "event"
    },
    {
      "anonymous": false,
      "inputs": [
        {
          "indexed": false,
          "internalType": "address",
          "name": "_oldRewardDistributor",
          "type": "address"
        }
      ],
      "name": "RemoveRewardDistributor",
      "type": "event"
    },
    {
      "anonymous": false,
      "inputs": [
        {
          "indexed": false,
          "internalType": "address",
          "name": "spender",
          "type": "address"
        },
        {
          "indexed": true,
          "internalType": "address",
          "name": "recipient",
          "type": "address"
        },
        {
          "indexed": true,
          "internalType": "uint256",
          "name": "stakeAmount",
          "type": "uint256"
        },
        {
          "indexed": true,
          "internalType": "uint256",
          "name": "stakedAmount",
          "type": "uint256"
        }
      ],
      "name": "Staked",
      "type": "event"
    },
    {
      "anonymous": false,
      "inputs": [
        {
          "indexed": true,
          "internalType": "address",
          "name": "user",
          "type": "address"
        },
        {
          "indexed": true,
          "internalType": "uint256",
          "name": "stakeAmount",
          "type": "uint256"
        },
        {
          "indexed": true,
          "internalType": "uint256",
          "name": "stakedAmount",
          "type": "uint256"
        }
      ],
      "name": "Withdrawn",
      "type": "event"
    },
    {
      "inputs": [],
      "name": "_acceptOwner",
      "outputs": [],
      "stateMutability": "nonpayable",
      "type": "function"
    },
    {
      "inputs": [
        {
          "internalType": "address",
          "name": "_newRewardDistributor",
          "type": "address"
        }
      ],
      "name": "_addRewardDistributor",
      "outputs": [],
      "stateMutability": "nonpayable",
      "type": "function"
    },
    {
      "inputs": [
        {
          "internalType": "address",
          "name": "_oldRewardDistributor",
          "type": "address"
        }
      ],
      "name": "_removeRewardDistributor",
      "outputs": [],
      "stateMutability": "nonpayable",
      "type": "function"
    },
    {
      "inputs": [
        {
          "internalType": "address payable",
          "name": "newPendingOwner",
          "type": "address"
        }
      ],
      "name": "_setPendingOwner",
      "outputs": [],
      "stateMutability": "nonpayable",
      "type": "function"
    },
    {
      "inputs": [
        {
          "internalType": "contract IRewardDistributorManager",
          "name": "_rewardDistributorManager",
          "type": "address"
        }
      ],
      "name": "_setRewardDistributorManager",
      "outputs": [],
      "stateMutability": "nonpayable",
      "type": "function"
    },
    {
      "inputs": [
        {
          "internalType": "address",
          "name": "account",
          "type": "address"
        }
      ],
      "name": "balanceOf",
      "outputs": [
        {
          "internalType": "uint256",
          "name": "",
          "type": "uint256"
        }
      ],
      "stateMutability": "view",
      "type": "function"
    },
    {
      "inputs": [],
      "name": "getRewardDistributors",
      "outputs": [
        {
          "internalType": "address[]",
          "name": "",
          "type": "address[]"
        }
      ],
      "stateMutability": "view",
      "type": "function"
    },
    {
      "inputs": [
        {
          "internalType": "contract IERC20Upgradeable",
          "name": "_stakingToken",
          "type": "address"
        }
      ],
      "name": "initialize",
      "outputs": [],
      "stateMutability": "nonpayable",
      "type": "function"
    },
    {
      "inputs": [],
      "name": "isStakingPool",
      "outputs": [
        {
          "internalType": "bool",
          "name": "",
          "type": "bool"
        }
      ],
      "stateMutability": "pure",
      "type": "function"
    },
    {
      "inputs": [],
      "name": "owner",
      "outputs": [
        {
          "internalType": "address payable",
          "name": "",
          "type": "address"
        }
      ],
      "stateMutability": "view",
      "type": "function"
    },
    {
      "inputs": [],
      "name": "pendingOwner",
      "outputs": [
        {
          "internalType": "address payable",
          "name": "",
          "type": "address"
        }
      ],
      "stateMutability": "view",
      "type": "function"
    },
    {
      "inputs": [],
      "name": "rewardDistributorManager",
      "outputs": [
        {
          "internalType": "contract IRewardDistributorManager",
          "name": "",
          "type": "address"
        }
      ],
      "stateMutability": "view",
      "type": "function"
    },
    {
      "inputs": [
        {
          "internalType": "address",
          "name": "_recipient",
          "type": "address"
        },
        {
          "internalType": "uint256",
          "name": "_amount",
          "type": "uint256"
        }
      ],
      "name": "stake",
      "outputs": [],
      "stateMutability": "nonpayable",
      "type": "function"
    },
    {
      "inputs": [],
      "name": "stakingToken",
      "outputs": [
        {
          "internalType": "contract IERC20Upgradeable",
          "name": "",
          "type": "address"
        }
      ],
      "stateMutability": "view",
      "type": "function"
    },
    {
      "inputs": [],
      "name": "totalSupply",
      "outputs": [
        {
          "internalType": "uint256",
          "name": "",
          "type": "uint256"
        }
      ],
      "stateMutability": "view",
      "type": "function"
    },
    {
      "inputs": [
        {
          "internalType": "uint256",
          "name": "_amount",
          "type": "uint256"
        }
      ],
      "name": "withdraw",
      "outputs": [],
      "stateMutability": "nonpayable",
      "type": "function"
    }
  ],
  "transactionHash": "0x7ecd870fea1b5bef644310ecf9200fbd9f4b2a096d60494f1769deb07aa9d15e",
  "args": [
    "0x1281Ce90FBF71c984d5A4c497824FFBD5431497A"
  ],
  "numDeployments": 1,
  "solcInputHash": "9e65e50cc5c17914ebf6a581389e5053",
  "bytecode": "0x60806040523480156200001157600080fd5b50604051620016963803806200169683398101604081905262000034916200015f565b80620000408162000048565b505062000191565b60005460ff1615620000b75760405162461bcd60e51b815260206004820152602e60248201527f496e697469616c697a61626c653a20636f6e747261637420697320616c72656160448201526d191e481a5b9a5d1a585b1a5e995960921b606482015260840160405180910390fd5b6001600160a01b038116620000de57604051625f83fb60e41b815260040160405180910390fd5b620000e862000117565b603480546001600160a01b0319166001600160a01b03929092169190911790556000805460ff19166001179055565b60008054610100600160a81b0319163361010081029190911782556040519091907f70aea8d848e8a90fb7661b227dc522eb6395c3dac71b63cb59edd5c9899b2364908290a3565b6000602082840312156200017257600080fd5b81516001600160a01b03811681146200018a57600080fd5b9392505050565b6114f580620001a16000396000f3fe608060405234801561001057600080fd5b50600436106101005760003560e01c80638da5cb5b11610097578063c4d66de811610066578063c4d66de814610220578063d933ac6714610233578063e30c397814610246578063fc4d33f91461025957600080fd5b80638da5cb5b146101d3578063adc9772e146101eb578063aed6d5c0146101fe578063b2a6df741461020d57600080fd5b806361252fd1116100d357806361252fd11461016f5780636e96dfd71461018457806370a082311461019757806372f702f3146101c057600080fd5b806318160ddd146101055780632e1a7d4d1461011c578063337fbfa814610131578063415985c114610144575b600080fd5b6035545b6040519081526020015b60405180910390f35b61012f61012a36600461128e565b610261565b005b61012f61013f3660046112bc565b6103b1565b603954610157906001600160a01b031681565b6040516001600160a01b039091168152602001610113565b610177610455565b60405161011391906112d9565b61012f6101923660046112bc565b610466565b6101096101a53660046112bc565b6001600160a01b031660009081526036602052604090205490565b603454610157906001600160a01b031681565b6000546101579061010090046001600160a01b031681565b61012f6101f9366004611326565b610593565b60405160018152602001610113565b61012f61021b3660046112bc565b6106e7565b61012f61022e3660046112bc565b61079f565b61012f6102413660046112bc565b610866565b600154610157906001600160a01b031681565b61012f610962565b61026a81610a78565b60395460408051630a63bfd560e11b815290516000926001600160a01b0316916314c77faa9160048083019260209291908290030181865afa1580156102b4573d6000803e3d6000fd5b505050506040513d601f19601f820116820180604052508101906102d89190611352565b604051632af3854960e01b81523060048201529091506000906001600160a01b03831690632af3854990602401602060405180830381865afa158015610322573d6000803e3d6000fd5b505050506040513d601f19601f82011682018060405250810190610346919061136f565b905080156103ac5760395460405163098f82e760e21b81523360048201526001600160a01b039091169063263e0b9c90602401600060405180830381600087803b15801561039357600080fd5b505af11580156103a7573d6000803e3d6000fd5b505050505b505050565b60005461010090046001600160a01b031633146103e95760405162461bcd60e51b81526004016103e090611391565b60405180910390fd5b6103f4603782610bbe565b15610439576040516001600160a01b03821681527f202daff40f5262ad5e95940c6c7a62bc0117d839570a20c66268dc0983ef6143906020015b60405180910390a150565b604051630242c2a560e51b815260040160405180910390fd5b50565b60606104616037610bdc565b905090565b60005461010090046001600160a01b031633146104955760405162461bcd60e51b81526004016103e090611391565b6001600160a01b038116158015906104bb57506001546001600160a01b03828116911614155b6105415760405162461bcd60e51b815260206004820152604b60248201527f5f73657450656e64696e674f776e65723a204e6577206f77656e722063616e2060448201527f6e6f74206265207a65726f206164647265737320616e64206f776e657220686160648201526a73206265656e207365742160a81b608482015260a4016103e0565b600180546001600160a01b038381166001600160a01b0319831681179093556040519116919082907fb3d55174552271a4f1aaf36b72f50381e892171636b3fb5447fe00e995e7a37b90600090a35050565b61059d8282610bf0565b60395460408051630a63bfd560e11b815290516000926001600160a01b0316916314c77faa9160048083019260209291908290030181865afa1580156105e7573d6000803e3d6000fd5b505050506040513d601f19601f8201168201806040525081019061060b9190611352565b604051632af3854960e01b81523060048201529091506000906001600160a01b03831690632af3854990602401602060405180830381865afa158015610655573d6000803e3d6000fd5b505050506040513d601f19601f82011682018060405250810190610679919061136f565b905080156106e15760395460405163098f82e760e21b81526001600160a01b0386811660048301529091169063263e0b9c90602401600060405180830381600087803b1580156106c857600080fd5b505af11580156106dc573d6000803e3d6000fd5b505050505b50505050565b60005461010090046001600160a01b031633146107165760405162461bcd60e51b81526004016103e090611391565b6001600160a01b03811661073d57604051633f03113560e21b815260040160405180910390fd5b610748603782610d56565b15610786576040516001600160a01b03821681527fafd92645c06c0f746b45815ad30af48dfbac17647e860d7be5e8bcaded9498a99060200161042e565b604051630217a53560e21b815260040160405180910390fd5b60005460ff16156108095760405162461bcd60e51b815260206004820152602e60248201527f496e697469616c697a61626c653a20636f6e747261637420697320616c72656160448201526d191e481a5b9a5d1a585b1a5e995960921b60648201526084016103e0565b6001600160a01b03811661082f57604051625f83fb60e41b815260040160405180910390fd5b610837610d6b565b603480546001600160a01b0319166001600160a01b03929092169190911790556000805460ff19166001179055565b60005461010090046001600160a01b031633146108955760405162461bcd60e51b81526004016103e090611391565b806001600160a01b031663eb5bf95d6040518163ffffffff1660e01b8152600401602060405180830381865afa1580156108d3573d6000803e3d6000fd5b505050506040513d601f19601f820116820180604052508101906108f7919061136f565b6109145760405163d83931ad60e01b815260040160405180910390fd5b603980546001600160a01b0319166001600160a01b0383169081179091556040519081527f69df209622c88250230a5fe484d1fe30a9fea87c4aa276f20ac505761cac54929060200161042e565b6001546001600160a01b031633146109ca5760405162461bcd60e51b815260206004820152602560248201527f5f6163636570744f776e65723a204f6e6c7920666f722070656e64696e67206f604482015264776e65722160d81b60648201526084016103e0565b60008054600180546001600160a01b03818116610100818102610100600160a81b03198716178088556001600160a01b031990941690945560405194849004821695909493909204169184917f70aea8d848e8a90fb7661b227dc522eb6395c3dac71b63cb59edd5c9899b236491a36001546040516001600160a01b03918216918316907fb3d55174552271a4f1aaf36b72f50381e892171636b3fb5447fe00e995e7a37b90600090a35050565b336000610a856037610db3565b905060005b81811015610b0557610a9d603782610dbd565b60405163632447c960e01b81526001600160a01b038581166004830152919091169063632447c990602401600060405180830381600087803b158015610ae257600080fd5b505af1158015610af6573d6000803e3d6000fd5b50505050806001019050610a8a565b5082610b2457604051636602e2a160e11b815260040160405180910390fd5b82603554610b3291906113e9565b60355533600090815260366020526040902054610b509084906113e9565b33600081815260366020526040902091909155603454610b7c916001600160a01b039091169085610dc9565b336000818152603660205260408082205490519092869290917f92ccf450a286a957af52509bc1c9939d1a6a481783e142e41e2499f0bb66ebc69190a4505050565b6000610bd3836001600160a01b038416610e2c565b90505b92915050565b60606000610be983610f1f565b9392505050565b816000610bfd6037610db3565b905060005b81811015610c7d57610c15603782610dbd565b60405163632447c960e01b81526001600160a01b038581166004830152919091169063632447c990602401600060405180830381600087803b158015610c5a57600080fd5b505af1158015610c6e573d6000803e3d6000fd5b50505050806001019050610c02565b5082610c9b576040516206d0c960e51b815260040160405180910390fd5b82603554610ca99190611400565b6035556001600160a01b038416600090815260366020526040902054610cd0908490611400565b6001600160a01b03808616600090815260366020526040902091909155603454610cfd9116333086610f7b565b6001600160a01b0384166000818152603660209081526040918290205491513381529192869290917f6c86f3fd5118b3aa8bb4f389a617046de0a3d3d477de1a1673d227f802f616dc910160405180910390a450505050565b6000610bd3836001600160a01b038416610fb3565b60008054610100600160a81b0319163361010081029190911782556040519091907f70aea8d848e8a90fb7661b227dc522eb6395c3dac71b63cb59edd5c9899b2364908290a3565b6000610bd6825490565b6000610bd38383611002565b6040516001600160a01b0383166024820152604481018290526103ac90849063a9059cbb60e01b906064015b60408051601f198184030181529190526020810180516001600160e01b03166001600160e01b03199093169290921790915261102c565b60008181526001830160205260408120548015610f15576000610e506001836113e9565b8554909150600090610e64906001906113e9565b9050818114610ec9576000866000018281548110610e8457610e84611418565b9060005260206000200154905080876000018481548110610ea757610ea7611418565b6000918252602080832090910192909255918252600188019052604090208390555b8554869080610eda57610eda61142e565b600190038181906000526020600020016000905590558560010160008681526020019081526020016000206000905560019350505050610bd6565b6000915050610bd6565b606081600001805480602002602001604051908101604052809291908181526020018280548015610f6f57602002820191906000526020600020905b815481526020019060010190808311610f5b575b50505050509050919050565b6040516001600160a01b03808516602483015283166044820152606481018290526106e19085906323b872dd60e01b90608401610df5565b6000818152600183016020526040812054610ffa57508154600181810184556000848152602080822090930184905584548482528286019093526040902091909155610bd6565b506000610bd6565b600082600001828154811061101957611019611418565b9060005260206000200154905092915050565b6000611081826040518060400160405280602081526020017f5361666545524332303a206c6f772d6c6576656c2063616c6c206661696c6564815250856001600160a01b03166111019092919063ffffffff16565b90508051600014806110a25750808060200190518101906110a2919061136f565b6103ac5760405162461bcd60e51b815260206004820152602a60248201527f5361666545524332303a204552433230206f7065726174696f6e20646964206e6044820152691bdd081cdd58d8d9595960b21b60648201526084016103e0565b60606111108484600085611118565b949350505050565b6060824710156111795760405162461bcd60e51b815260206004820152602660248201527f416464726573733a20696e73756666696369656e742062616c616e636520666f6044820152651c8818d85b1b60d21b60648201526084016103e0565b600080866001600160a01b031685876040516111959190611470565b60006040518083038185875af1925050503d80600081146111d2576040519150601f19603f3d011682016040523d82523d6000602084013e6111d7565b606091505b50915091506111e8878383876111f3565b979650505050505050565b6060831561125f578251611258576001600160a01b0385163b6112585760405162461bcd60e51b815260206004820152601d60248201527f416464726573733a2063616c6c20746f206e6f6e2d636f6e747261637400000060448201526064016103e0565b5081611110565b61111083838151156112745781518083602001fd5b8060405162461bcd60e51b81526004016103e0919061148c565b6000602082840312156112a057600080fd5b5035919050565b6001600160a01b038116811461045257600080fd5b6000602082840312156112ce57600080fd5b8135610be9816112a7565b6020808252825182820181905260009190848201906040850190845b8181101561131a5783516001600160a01b0316835292840192918401916001016112f5565b50909695505050505050565b6000806040838503121561133957600080fd5b8235611344816112a7565b946020939093013593505050565b60006020828403121561136457600080fd5b8151610be9816112a7565b60006020828403121561138157600080fd5b81518015158114610be957600080fd5b60208082526022908201527f6f6e6c794f776e65723a2063616c6c6572206973206e6f7420746865206f776e60408201526132b960f11b606082015260800190565b634e487b7160e01b600052601160045260246000fd5b6000828210156113fb576113fb6113d3565b500390565b60008219821115611413576114136113d3565b500190565b634e487b7160e01b600052603260045260246000fd5b634e487b7160e01b600052603160045260246000fd5b60005b8381101561145f578181015183820152602001611447565b838111156106e15750506000910152565b60008251611482818460208701611444565b9190910192915050565b60208152600082518060208401526114ab816040850160208701611444565b601f01601f1916919091016040019291505056fea2646970667358221220492414a81ee0015756f01ef535b0dee2677352097ff6582f146baf25bdce536864736f6c634300080a0033",
  "devdoc": {
    "kind": "dev",
    "methods": {
      "_acceptOwner()": {
        "details": "Accepts the admin rights, but only for pendingOwenr."
      },
      "_setPendingOwner(address)": {
        "details": "Transfer contract control to a new owner. The newPendingOwner must call `_acceptOwner` to finish the transfer.",
        "params": {
          "newPendingOwner": "New pending owner."
        }
      }
    },
    "version": 1
  },
  "userdoc": {
    "kind": "user",
    "methods": {
      "_setPendingOwner(address)": {
        "notice": "Base on the inputing parameter `newPendingOwner` to check the exact error reason."
      },
      "isStakingPool()": {
        "notice": "Ensure this is a Staking Pool contract."
      }
    },
    "version": 1
  },
  "storageLayout": {
    "storage": [
      {
        "astId": 6023,
        "contract": "src/Stake/BLPStakingPool.sol:BLPStakingPool",
        "label": "_initialized",
        "offset": 0,
        "slot": "0",
        "type": "t_bool"
      },
      {
        "astId": 6045,
        "contract": "src/Stake/BLPStakingPool.sol:BLPStakingPool",
        "label": "owner",
        "offset": 1,
        "slot": "0",
        "type": "t_address_payable"
      },
      {
        "astId": 6048,
        "contract": "src/Stake/BLPStakingPool.sol:BLPStakingPool",
        "label": "pendingOwner",
        "offset": 0,
        "slot": "1",
        "type": "t_address_payable"
      },
      {
        "astId": 6180,
        "contract": "src/Stake/BLPStakingPool.sol:BLPStakingPool",
        "label": "__gap",
        "offset": 0,
        "slot": "2",
        "type": "t_array(t_uint256)50_storage"
      },
      {
        "astId": 10525,
        "contract": "src/Stake/BLPStakingPool.sol:BLPStakingPool",
        "label": "stakingToken",
        "offset": 0,
        "slot": "52",
        "type": "t_contract(IERC20Upgradeable)77"
      },
      {
        "astId": 10527,
        "contract": "src/Stake/BLPStakingPool.sol:BLPStakingPool",
        "label": "_totalSupply",
        "offset": 0,
        "slot": "53",
        "type": "t_uint256"
      },
      {
        "astId": 10531,
        "contract": "src/Stake/BLPStakingPool.sol:BLPStakingPool",
        "label": "_balances",
        "offset": 0,
        "slot": "54",
        "type": "t_mapping(t_address,t_uint256)"
      },
      {
        "astId": 10534,
        "contract": "src/Stake/BLPStakingPool.sol:BLPStakingPool",
        "label": "_rewardDistributors",
        "offset": 0,
        "slot": "55",
        "type": "t_struct(AddressSet)1145_storage"
      },
      {
        "astId": 10375,
        "contract": "src/Stake/BLPStakingPool.sol:BLPStakingPool",
        "label": "rewardDistributorManager",
        "offset": 0,
        "slot": "57",
        "type": "t_contract(IRewardDistributorManager)5867"
      }
    ],
    "types": {
      "t_address": {
        "encoding": "inplace",
        "label": "address",
        "numberOfBytes": "20"
      },
      "t_address_payable": {
        "encoding": "inplace",
        "label": "address payable",
        "numberOfBytes": "20"
      },
      "t_array(t_bytes32)dyn_storage": {
        "base": "t_bytes32",
        "encoding": "dynamic_array",
        "label": "bytes32[]",
        "numberOfBytes": "32"
      },
      "t_array(t_uint256)50_storage": {
        "base": "t_uint256",
        "encoding": "inplace",
        "label": "uint256[50]",
        "numberOfBytes": "1600"
      },
      "t_bool": {
        "encoding": "inplace",
        "label": "bool",
        "numberOfBytes": "1"
      },
      "t_bytes32": {
        "encoding": "inplace",
        "label": "bytes32",
        "numberOfBytes": "32"
      },
      "t_contract(IERC20Upgradeable)77": {
        "encoding": "inplace",
        "label": "contract IERC20Upgradeable",
        "numberOfBytes": "20"
      },
      "t_contract(IRewardDistributorManager)5867": {
        "encoding": "inplace",
        "label": "contract IRewardDistributorManager",
        "numberOfBytes": "20"
      },
      "t_mapping(t_address,t_uint256)": {
        "encoding": "mapping",
        "key": "t_address",
        "label": "mapping(address => uint256)",
        "numberOfBytes": "32",
        "value": "t_uint256"
      },
      "t_mapping(t_bytes32,t_uint256)": {
        "encoding": "mapping",
        "key": "t_bytes32",
        "label": "mapping(bytes32 => uint256)",
        "numberOfBytes": "32",
        "value": "t_uint256"
      },
      "t_struct(AddressSet)1145_storage": {
        "encoding": "inplace",
        "label": "struct EnumerableSetUpgradeable.AddressSet",
        "members": [
          {
            "astId": 1144,
            "contract": "src/Stake/BLPStakingPool.sol:BLPStakingPool",
            "label": "_inner",
            "offset": 0,
            "slot": "0",
            "type": "t_struct(Set)830_storage"
          }
        ],
        "numberOfBytes": "64"
      },
      "t_struct(Set)830_storage": {
        "encoding": "inplace",
        "label": "struct EnumerableSetUpgradeable.Set",
        "members": [
          {
            "astId": 825,
            "contract": "src/Stake/BLPStakingPool.sol:BLPStakingPool",
            "label": "_values",
            "offset": 0,
            "slot": "0",
            "type": "t_array(t_bytes32)dyn_storage"
          },
          {
            "astId": 829,
            "contract": "src/Stake/BLPStakingPool.sol:BLPStakingPool",
            "label": "_indexes",
            "offset": 0,
            "slot": "1",
            "type": "t_mapping(t_bytes32,t_uint256)"
          }
        ],
        "numberOfBytes": "64"
      },
      "t_uint256": {
        "encoding": "inplace",
        "label": "uint256",
        "numberOfBytes": "32"
      }
    }
  }
}