{
  "address": "0x61637a66EB7821F7a82f3d745F8Ec76BB524be89",
  "abi": [
    {
      "inputs": [
        {
          "internalType": "address",
          "name": "_controller",
          "type": "address"
        },
        {
          "internalType": "uint256",
          "name": "_ratio",
          "type": "uint256"
        }
      ],
      "stateMutability": "nonpayable",
      "type": "constructor"
    },
    {
      "inputs": [
        {
          "internalType": "address",
          "name": "stakingPool",
          "type": "address"
        }
      ],
      "name": "EligibilityManager_addBLPStakingPoolInternal__InvalidStakingPool",
      "type": "error"
    },
    {
      "inputs": [
        {
          "internalType": "address",
          "name": "stakingPool",
          "type": "address"
        }
      ],
      "name": "EligibilityManager_addBLPStakingPoolInternal__StakingPoolAlreadyExist",
      "type": "error"
    },
    {
      "inputs": [
        {
          "internalType": "address",
          "name": "iToken",
          "type": "address"
        }
      ],
      "name": "EligibilityManager_addValidSupplyInternal__InvalidSupply",
      "type": "error"
    },
    {
      "inputs": [
        {
          "internalType": "address",
          "name": "iToken",
          "type": "address"
        }
      ],
      "name": "EligibilityManager_addValidSupplyInternal__ValidSupplyAlreadyExist",
      "type": "error"
    },
    {
      "inputs": [],
      "name": "EligibilityManager_initialize__InvalidController",
      "type": "error"
    },
    {
      "inputs": [
        {
          "internalType": "address",
          "name": "stakingPool",
          "type": "address"
        }
      ],
      "name": "EligibilityManager_removeBLPStakingPoolInternal__StakingPoolDoesNotExist",
      "type": "error"
    },
    {
      "inputs": [
        {
          "internalType": "address",
          "name": "iToken",
          "type": "address"
        }
      ],
      "name": "EligibilityManager_removeValidSupplyInternal__ValidSupplyDoesNotExist",
      "type": "error"
    },
    {
      "anonymous": false,
      "inputs": [
        {
          "indexed": false,
          "internalType": "address",
          "name": "stakingPool",
          "type": "address"
        },
        {
          "indexed": false,
          "internalType": "address",
          "name": "BLP",
          "type": "address"
        }
      ],
      "name": "AddBLPStakingPool",
      "type": "event"
    },
    {
      "anonymous": false,
      "inputs": [
        {
          "indexed": false,
          "internalType": "address",
          "name": "iToken",
          "type": "address"
        }
      ],
      "name": "AddValidSupply",
      "type": "event"
    },
    {
      "anonymous": false,
      "inputs": [
        {
          "indexed": true,
          "internalType": "address",
          "name": "previousOwner",
          "type": "address"
        },
        {
          "indexed": true,
          "internalType": "address",
          "name": "newOwner",
          "type": "address"
        }
      ],
      "name": "NewOwner",
      "type": "event"
    },
    {
      "anonymous": false,
      "inputs": [
        {
          "indexed": true,
          "internalType": "address",
          "name": "oldPendingOwner",
          "type": "address"
        },
        {
          "indexed": true,
          "internalType": "address",
          "name": "newPendingOwner",
          "type": "address"
        }
      ],
      "name": "NewPendingOwner",
      "type": "event"
    },
    {
      "anonymous": false,
      "inputs": [
        {
          "indexed": false,
          "internalType": "uint256",
          "name": "thresholdRatio",
          "type": "uint256"
        }
      ],
      "name": "NewThresholdRatio",
      "type": "event"
    },
    {
      "anonymous": false,
      "inputs": [
        {
          "indexed": false,
          "internalType": "address",
          "name": "stakingPool",
          "type": "address"
        }
      ],
      "name": "RemoveBLPStakingPool",
      "type": "event"
    },
    {
      "anonymous": false,
      "inputs": [
        {
          "indexed": false,
          "internalType": "address",
          "name": "iToken",
          "type": "address"
        }
      ],
      "name": "RemoveValidSupply",
      "type": "event"
    },
    {
      "inputs": [
        {
          "internalType": "address",
          "name": "",
          "type": "address"
        }
      ],
      "name": "BLPs",
      "outputs": [
        {
          "internalType": "address",
          "name": "",
          "type": "address"
        }
      ],
      "stateMutability": "view",
      "type": "function"
    },
    {
      "inputs": [],
      "name": "_acceptOwner",
      "outputs": [],
      "stateMutability": "nonpayable",
      "type": "function"
    },
    {
      "inputs": [
        {
          "internalType": "address",
          "name": "_stakingPool",
          "type": "address"
        }
      ],
      "name": "_addBLPStakingPool",
      "outputs": [],
      "stateMutability": "nonpayable",
      "type": "function"
    },
    {
      "inputs": [
        {
          "internalType": "address[]",
          "name": "_stakingPools",
          "type": "address[]"
        }
      ],
      "name": "_addBLPStakingPools",
      "outputs": [],
      "stateMutability": "nonpayable",
      "type": "function"
    },
    {
      "inputs": [
        {
          "internalType": "address[]",
          "name": "_iTokens",
          "type": "address[]"
        }
      ],
      "name": "_addValidSupplies",
      "outputs": [],
      "stateMutability": "nonpayable",
      "type": "function"
    },
    {
      "inputs": [
        {
          "internalType": "address",
          "name": "_iToken",
          "type": "address"
        }
      ],
      "name": "_addValidSupply",
      "outputs": [],
      "stateMutability": "nonpayable",
      "type": "function"
    },
    {
      "inputs": [
        {
          "internalType": "address",
          "name": "_stakingPool",
          "type": "address"
        }
      ],
      "name": "_removeBLPStakingPool",
      "outputs": [],
      "stateMutability": "nonpayable",
      "type": "function"
    },
    {
      "inputs": [
        {
          "internalType": "address[]",
          "name": "_stakingPools",
          "type": "address[]"
        }
      ],
      "name": "_removeBLPStakingPools",
      "outputs": [],
      "stateMutability": "nonpayable",
      "type": "function"
    },
    {
      "inputs": [
        {
          "internalType": "address[]",
          "name": "_iTokens",
          "type": "address[]"
        }
      ],
      "name": "_removeValidSupplies",
      "outputs": [],
      "stateMutability": "nonpayable",
      "type": "function"
    },
    {
      "inputs": [
        {
          "internalType": "address",
          "name": "_iToken",
          "type": "address"
        }
      ],
      "name": "_removeValidSupply",
      "outputs": [],
      "stateMutability": "nonpayable",
      "type": "function"
    },
    {
      "inputs": [
        {
          "internalType": "address payable",
          "name": "newPendingOwner",
          "type": "address"
        }
      ],
      "name": "_setPendingOwner",
      "outputs": [],
      "stateMutability": "nonpayable",
      "type": "function"
    },
    {
      "inputs": [
        {
          "internalType": "uint256",
          "name": "_ratio",
          "type": "uint256"
        }
      ],
      "name": "_setThresholdRatio",
      "outputs": [],
      "stateMutability": "nonpayable",
      "type": "function"
    },
    {
      "inputs": [],
      "name": "controller",
      "outputs": [
        {
          "internalType": "address",
          "name": "",
          "type": "address"
        }
      ],
      "stateMutability": "view",
      "type": "function"
    },
    {
      "inputs": [],
      "name": "getBLPStakingPools",
      "outputs": [
        {
          "internalType": "address[]",
          "name": "",
          "type": "address[]"
        }
      ],
      "stateMutability": "view",
      "type": "function"
    },
    {
      "inputs": [
        {
          "internalType": "address",
          "name": "_account",
          "type": "address"
        }
      ],
      "name": "getBLPValue",
      "outputs": [
        {
          "internalType": "uint256",
          "name": "value",
          "type": "uint256"
        },
        {
          "internalType": "bool",
          "name": "status",
          "type": "bool"
        }
      ],
      "stateMutability": "nonpayable",
      "type": "function"
    },
    {
      "inputs": [
        {
          "internalType": "address",
          "name": "_account",
          "type": "address"
        }
      ],
      "name": "getSupplyValue",
      "outputs": [
        {
          "internalType": "uint256",
          "name": "value",
          "type": "uint256"
        },
        {
          "internalType": "bool",
          "name": "status",
          "type": "bool"
        }
      ],
      "stateMutability": "nonpayable",
      "type": "function"
    },
    {
      "inputs": [],
      "name": "getValidSupplies",
      "outputs": [
        {
          "internalType": "address[]",
          "name": "",
          "type": "address[]"
        }
      ],
      "stateMutability": "view",
      "type": "function"
    },
    {
      "inputs": [
        {
          "internalType": "address",
          "name": "_stakingPool",
          "type": "address"
        }
      ],
      "name": "hasBLPStakingPool",
      "outputs": [
        {
          "internalType": "bool",
          "name": "",
          "type": "bool"
        }
      ],
      "stateMutability": "view",
      "type": "function"
    },
    {
      "inputs": [
        {
          "internalType": "address",
          "name": "_controller",
          "type": "address"
        },
        {
          "internalType": "uint256",
          "name": "_ratio",
          "type": "uint256"
        }
      ],
      "name": "initialize",
      "outputs": [],
      "stateMutability": "nonpayable",
      "type": "function"
    },
    {
      "inputs": [],
      "name": "isEligibilityManager",
      "outputs": [
        {
          "internalType": "bool",
          "name": "",
          "type": "bool"
        }
      ],
      "stateMutability": "pure",
      "type": "function"
    },
    {
      "inputs": [
        {
          "internalType": "address",
          "name": "_account",
          "type": "address"
        }
      ],
      "name": "isEligible",
      "outputs": [
        {
          "internalType": "bool",
          "name": "",
          "type": "bool"
        },
        {
          "internalType": "bool",
          "name": "",
          "type": "bool"
        }
      ],
      "stateMutability": "nonpayable",
      "type": "function"
    },
    {
      "inputs": [],
      "name": "oracle",
      "outputs": [
        {
          "internalType": "address",
          "name": "",
          "type": "address"
        }
      ],
      "stateMutability": "view",
      "type": "function"
    },
    {
      "inputs": [],
      "name": "owner",
      "outputs": [
        {
          "internalType": "address payable",
          "name": "",
          "type": "address"
        }
      ],
      "stateMutability": "view",
      "type": "function"
    },
    {
      "inputs": [],
      "name": "pendingOwner",
      "outputs": [
        {
          "internalType": "address payable",
          "name": "",
          "type": "address"
        }
      ],
      "stateMutability": "view",
      "type": "function"
    },
    {
      "inputs": [],
      "name": "thresholdRatio",
      "outputs": [
        {
          "internalType": "uint256",
          "name": "",
          "type": "uint256"
        }
      ],
      "stateMutability": "view",
      "type": "function"
    }
  ],
  "transactionHash": "0x252de8798aa0f08d4c10cd8329681b08a55b84d503bbb67b481a61e61f34c2ac",
  "args": [
    "0x1cD0b4aFA81568F967c769d48607796A6A2E8B71",
    "10000000000000000"
  ],
  "numDeployments": 1,
  "solcInputHash": "9e65e50cc5c17914ebf6a581389e5053",
  "bytecode": "0x60806040523480156200001157600080fd5b5060405162001e5538038062001e55833981016040819052620000349162000292565b62000040828262000048565b50506200030a565b60005460ff1615620000b75760405162461bcd60e51b815260206004820152602e60248201527f496e697469616c697a61626c653a20636f6e747261637420697320616c72656160448201526d191e481a5b9a5d1a585b1a5e995960921b606482015260840160405180910390fd5b816001600160a01b0316634e1647fb6040518163ffffffff1660e01b8152600401602060405180830381865afa158015620000f6573d6000803e3d6000fd5b505050506040513d601f19601f820116820180604052508101906200011c9190620002c1565b6200013a5760405163d232631560e01b815260040160405180910390fd5b620001446200022d565b603480546001600160a01b0319166001600160a01b03841690811790915560408051632630c12f60e01b81529051632630c12f916004808201926020929091908290030181865afa1580156200019e573d6000803e3d6000fd5b505050506040513d601f19601f82011682018060405250810190620001c49190620002ec565b603580546001600160a01b0319166001600160a01b039290921691909117905560368190556040518181527fc56d375f1c071074fc31fb4fa10030427229b17eb79895b7726242630ef301c59060200160405180910390a150506000805460ff19166001179055565b60008054610100600160a81b0319163361010081029190911782556040519091907f70aea8d848e8a90fb7661b227dc522eb6395c3dac71b63cb59edd5c9899b2364908290a3565b80516001600160a01b03811681146200028d57600080fd5b919050565b60008060408385031215620002a657600080fd5b620002b18362000275565b9150602083015190509250929050565b600060208284031215620002d457600080fd5b81518015158114620002e557600080fd5b9392505050565b600060208284031215620002ff57600080fd5b620002e58262000275565b611b3b806200031a6000396000f3fe608060405234801561001057600080fd5b50600436106101735760003560e01c806396a5a10e116100de578063cbb8abaf11610097578063f181614e11610071578063f181614e14610377578063f60107b51461037f578063f77c479114610392578063fc4d33f9146103a557600080fd5b8063cbb8abaf1461033e578063cd6dc68714610351578063e30c39781461036457600080fd5b806396a5a10e146102d45780639be4cd39146102db578063a6a79c02146102ee578063c0324da114610301578063c1a6008014610318578063c213d2261461032b57600080fd5b80636e96dfd7116101305780636e96dfd71461022f57806372faf61214610242578063749c503a146102555780637755d525146102685780637dc0d1d0146102a95780638da5cb5b146102bc57600080fd5b80630fc7f11c146101785780632af385491461018d5780632bb81ab7146101b5578063579c888a146101dd578063584416e2146101f057806366e305fd14610205575b600080fd5b61018b61018636600461185b565b6103ad565b005b6101a061019b36600461185b565b6103f1565b60405190151581526020015b60405180910390f35b6101c86101c336600461185b565b610404565b604080519283529015156020830152016101ac565b61018b6101eb366004611878565b6105e7565b6101f861065f565b6040516101ac91906118ed565b61021861021336600461185b565b610670565b6040805192151583529015156020830152016101ac565b61018b61023d36600461185b565b6106ed565b61018b61025036600461185b565b61081a565b61018b61026336600461185b565b610852565b61029161027636600461185b565b6039602052600090815260409020546001600160a01b031681565b6040516001600160a01b0390911681526020016101ac565b603554610291906001600160a01b031681565b6000546102919061010090046001600160a01b031681565b60016101a0565b61018b6102e936600461185b565b61088a565b61018b6102fc366004611878565b6108c2565b61030a60365481565b6040519081526020016101ac565b6101c861032636600461185b565b610934565b61018b610339366004611878565b610ab3565b61018b61034c366004611878565b610b25565b61018b61035f36600461193a565b610b97565b600154610291906001600160a01b031681565b6101f8610d6e565b61018b61038d366004611966565b610d7a565b603454610291906001600160a01b031681565b61018b610de5565b60005461010090046001600160a01b031633146103e55760405162461bcd60e51b81526004016103dc9061197f565b60405180910390fd5b6103ee81610efb565b50565b60006103fe603783610f86565b92915050565b6000806000610413603a610fab565b80516001935090915060005b818110156105df57600083828151811061043b5761043b6119c1565b60209081029190910101516040516370a0823160e01b81526001600160a01b0389811660048301529192506000918316906370a0823190602401602060405180830381865afa158015610492573d6000803e3d6000fd5b505050506040513d601f19601f820116820180604052508101906104b691906119d7565b905080156105d5576000826001600160a01b031663182df0f56040518163ffffffff1660e01b8152600401602060405180830381865afa1580156104fe573d6000803e3d6000fd5b505050506040513d601f19601f8201168201806040525081019061052291906119d7565b603554604051633b573cb760e21b81526001600160a01b0386811660048301529293506000928392169063ed5cf2dc9060240160408051808303816000875af1158015610573573d6000803e3d6000fd5b505050506040513d601f19601f820116820180604052508101906105979190611a05565b91509150801580156105a65750885b156105b057600098505b816105bb8585610fb8565b6105c59190611a47565b6105cf908b611a66565b99505050505b505060010161041f565b505050915091565b60005461010090046001600160a01b031633146106165760405162461bcd60e51b81526004016103dc9061197f565b8060005b8181101561065957610651848483818110610637576106376119c1565b905060200201602081019061064c919061185b565b610fd7565b60010161061a565b50505050565b606061066b6037610fab565b905090565b6000806036546000141561068957506001928392509050565b60008061069585611044565b91509150806106ab575060009485945092505050565b6000806106b7876111c6565b91509150806106cf5750600096879650945050505050565b6036546106dd908390610fb8565b9093119660019650945050505050565b60005461010090046001600160a01b0316331461071c5760405162461bcd60e51b81526004016103dc9061197f565b6001600160a01b0381161580159061074257506001546001600160a01b03828116911614155b6107c85760405162461bcd60e51b815260206004820152604b60248201527f5f73657450656e64696e674f776e65723a204e6577206f77656e722063616e2060448201527f6e6f74206265207a65726f206164647265737320616e64206f776e657220686160648201526a73206265656e207365742160a81b608482015260a4016103dc565b600180546001600160a01b038381166001600160a01b0319831681179093556040519116919082907fb3d55174552271a4f1aaf36b72f50381e892171636b3fb5447fe00e995e7a37b90600090a35050565b60005461010090046001600160a01b031633146108495760405162461bcd60e51b81526004016103dc9061197f565b6103ee816113a4565b60005461010090046001600160a01b031633146108815760405162461bcd60e51b81526004016103dc9061197f565b6103ee81611534565b60005461010090046001600160a01b031633146108b95760405162461bcd60e51b81526004016103dc9061197f565b6103ee81610fd7565b60005461010090046001600160a01b031633146108f15760405162461bcd60e51b81526004016103dc9061197f565b8060005b818110156106595761092c848483818110610912576109126119c1565b9050602002016020810190610927919061185b565b6113a4565b6001016108f5565b60008060006109436037610fab565b80516001935090915060005b818110156105df57600083828151811061096b5761096b6119c1565b6020908102919091018101516001600160a01b038082166000818152603990945260408085205490516370a0823160e01b81528c8416600482015293955090911692916370a0823190602401602060405180830381865afa1580156109d4573d6000803e3d6000fd5b505050506040513d601f19601f820116820180604052508101906109f891906119d7565b90508015610aa557603554604051633b573cb760e21b81526001600160a01b038481166004830152600092839291169063ed5cf2dc9060240160408051808303816000875af1158015610a4f573d6000803e3d6000fd5b505050506040513d601f19601f82011682018060405250810190610a739190611a05565b9150915080158015610a825750885b15610a8c57600098505b610a968284611a47565b610aa0908b611a66565b995050505b83600101935050505061094f565b60005461010090046001600160a01b03163314610ae25760405162461bcd60e51b81526004016103dc9061197f565b8060005b8181101561065957610b1d848483818110610b0357610b036119c1565b9050602002016020810190610b18919061185b565b611534565b600101610ae6565b60005461010090046001600160a01b03163314610b545760405162461bcd60e51b81526004016103dc9061197f565b8060005b8181101561065957610b8f848483818110610b7557610b756119c1565b9050602002016020810190610b8a919061185b565b610efb565b600101610b58565b60005460ff1615610c015760405162461bcd60e51b815260206004820152602e60248201527f496e697469616c697a61626c653a20636f6e747261637420697320616c72656160448201526d191e481a5b9a5d1a585b1a5e995960921b60648201526084016103dc565b816001600160a01b0316634e1647fb6040518163ffffffff1660e01b8152600401602060405180830381865afa158015610c3f573d6000803e3d6000fd5b505050506040513d601f19601f82011682018060405250810190610c639190611a7e565b610c805760405163d232631560e01b815260040160405180910390fd5b610c88611636565b603480546001600160a01b0319166001600160a01b03841690811790915560408051632630c12f60e01b81529051632630c12f916004808201926020929091908290030181865afa158015610ce1573d6000803e3d6000fd5b505050506040513d601f19601f82011682018060405250810190610d059190611a99565b603580546001600160a01b0319166001600160a01b039290921691909117905560368190556040518181527fc56d375f1c071074fc31fb4fa10030427229b17eb79895b7726242630ef301c59060200160405180910390a150506000805460ff19166001179055565b606061066b603a610fab565b60005461010090046001600160a01b03163314610da95760405162461bcd60e51b81526004016103dc9061197f565b60368190556040518181527fc56d375f1c071074fc31fb4fa10030427229b17eb79895b7726242630ef301c5906020015b60405180910390a150565b6001546001600160a01b03163314610e4d5760405162461bcd60e51b815260206004820152602560248201527f5f6163636570744f776e65723a204f6e6c7920666f722070656e64696e67206f604482015264776e65722160d81b60648201526084016103dc565b60008054600180546001600160a01b03818116610100818102610100600160a81b03198716178088556001600160a01b031990941690945560405194849004821695909493909204169184917f70aea8d848e8a90fb7661b227dc522eb6395c3dac71b63cb59edd5c9899b236491a36001546040516001600160a01b03918216918316907fb3d55174552271a4f1aaf36b72f50381e892171636b3fb5447fe00e995e7a37b90600090a35050565b610f0660378261167e565b15610f62576001600160a01b03811660008181526039602090815260409182902080546001600160a01b031916905590519182527f9d4e3f5ce25909675080711e7ecad5ecddf2ce48aac72bce49223ff6988557e89101610dda565b604051635ce91f2f60e11b81526001600160a01b03821660048201526024016103dc565b6001600160a01b038116600090815260018301602052604081205415155b9392505050565b60606000610fa483611693565b6000670de0b6b3a7640000610fcd8385611a47565b610fa49190611ab6565b610fe2603a8261167e565b15611020576040516001600160a01b03821681527f315a1de4f47e4306856be146b28cb9d5850b132d0a9f2317b33f0dd321ab0db090602001610dda565b60405163a869995760e01b81526001600160a01b03821660048201526024016103dc565b60008060006110536037610fab565b80516001935090915060005b818110156105df57600083828151811061107b5761107b6119c1565b6020908102919091018101516001600160a01b038082166000818152603990945260408085205490516370a0823160e01b81528c8416600482015293955090911692916370a0823190602401602060405180830381865afa1580156110e4573d6000803e3d6000fd5b505050506040513d601f19601f8201168201806040525081019061110891906119d7565b905080156111b857603554604051633b573cb760e21b81526001600160a01b038481166004830152600092839291169063ed5cf2dc9060240160408051808303816000875af115801561115f573d6000803e3d6000fd5b505050506040513d601f19601f820116820180604052508101906111839190611a05565b915091508061119f575060009a8b9a5098505050505050505050565b6111a98284611a47565b6111b3908b611a66565b995050505b83600101935050505061105f565b60008060006111d5603a610fab565b80516001935090915060005b818110156105df5760008382815181106111fd576111fd6119c1565b60209081029190910101516040516370a0823160e01b81526001600160a01b0389811660048301529192506000918316906370a0823190602401602060405180830381865afa158015611254573d6000803e3d6000fd5b505050506040513d601f19601f8201168201806040525081019061127891906119d7565b9050801561139a576000826001600160a01b031663182df0f56040518163ffffffff1660e01b8152600401602060405180830381865afa1580156112c0573d6000803e3d6000fd5b505050506040513d601f19601f820116820180604052508101906112e491906119d7565b603554604051633b573cb760e21b81526001600160a01b0386811660048301529293506000928392169063ed5cf2dc9060240160408051808303816000875af1158015611335573d6000803e3d6000fd5b505050506040513d601f19601f820116820180604052508101906113599190611a05565b9150915080611375575060009a8b9a5098505050505050505050565b816113808585610fb8565b61138a9190611a47565b611394908b611a66565b99505050505b50506001016111e1565b806001600160a01b031663aed6d5c06040518163ffffffff1660e01b8152600401602060405180830381865afa1580156113e2573d6000803e3d6000fd5b505050506040513d601f19601f820116820180604052508101906114069190611a7e565b61142e57604051635e664f6f60e11b81526001600160a01b03821660048201526024016103dc565b6114396037826116ef565b15611510576000816001600160a01b03166372f702f36040518163ffffffff1660e01b8152600401602060405180830381865afa15801561147e573d6000803e3d6000fd5b505050506040513d601f19601f820116820180604052508101906114a29190611a99565b6001600160a01b0383811660008181526039602090815260409182902080546001600160a01b031916948616948517905581519283528201929092529192507f959d6e20ded4c3fb8770f88c51caef9f8eeb8eb56d18ea9794b5cb1d24a1667c910160405180910390a15050565b6040516339b7bf2760e21b81526001600160a01b03821660048201526024016103dc565b603454604051632214743160e11b81526001600160a01b03838116600483015290911690634428e86290602401602060405180830381865afa15801561157e573d6000803e3d6000fd5b505050506040513d601f19601f820116820180604052508101906115a29190611a7e565b6115ca5760405163266d468960e01b81526001600160a01b03821660048201526024016103dc565b6115d5603a826116ef565b15611613576040516001600160a01b03821681527f860dc5b838cf7720a9ef26722e5343c45274594424def90463f2b155a26a46b290602001610dda565b60405162879b9360e21b81526001600160a01b03821660048201526024016103dc565b60008054610100600160a81b0319163361010081029190911782556040519091907f70aea8d848e8a90fb7661b227dc522eb6395c3dac71b63cb59edd5c9899b2364908290a3565b6000610fa4836001600160a01b038416611704565b6060816000018054806020026020016040519081016040528092919081815260200182805480156116e357602002820191906000526020600020905b8154815260200190600101908083116116cf575b50505050509050919050565b6000610fa4836001600160a01b0384166117f7565b600081815260018301602052604081205480156117ed576000611728600183611ad8565b855490915060009061173c90600190611ad8565b90508181146117a157600086600001828154811061175c5761175c6119c1565b906000526020600020015490508087600001848154811061177f5761177f6119c1565b6000918252602080832090910192909255918252600188019052604090208390555b85548690806117b2576117b2611aef565b6001900381819060005260206000200160009055905585600101600086815260200190815260200160002060009055600193505050506103fe565b60009150506103fe565b600081815260018301602052604081205461183e575081546001818101845560008481526020808220909301849055845484825282860190935260409020919091556103fe565b5060006103fe565b6001600160a01b03811681146103ee57600080fd5b60006020828403121561186d57600080fd5b8135610fa481611846565b6000806020838503121561188b57600080fd5b823567ffffffffffffffff808211156118a357600080fd5b818501915085601f8301126118b757600080fd5b8135818111156118c657600080fd5b8660208260051b85010111156118db57600080fd5b60209290920196919550909350505050565b6020808252825182820181905260009190848201906040850190845b8181101561192e5783516001600160a01b031683529284019291840191600101611909565b50909695505050505050565b6000806040838503121561194d57600080fd5b823561195881611846565b946020939093013593505050565b60006020828403121561197857600080fd5b5035919050565b60208082526022908201527f6f6e6c794f776e65723a2063616c6c6572206973206e6f7420746865206f776e60408201526132b960f11b606082015260800190565b634e487b7160e01b600052603260045260246000fd5b6000602082840312156119e957600080fd5b5051919050565b80518015158114611a0057600080fd5b919050565b60008060408385031215611a1857600080fd5b82519150611a28602084016119f0565b90509250929050565b634e487b7160e01b600052601160045260246000fd5b6000816000190483118215151615611a6157611a61611a31565b500290565b60008219821115611a7957611a79611a31565b500190565b600060208284031215611a9057600080fd5b610fa4826119f0565b600060208284031215611aab57600080fd5b8151610fa481611846565b600082611ad357634e487b7160e01b600052601260045260246000fd5b500490565b600082821015611aea57611aea611a31565b500390565b634e487b7160e01b600052603160045260246000fdfea26469706673582212205f50066f5237172180dcf92905f532e7a40bf88202f9cc00b501f1b0df8b79fa64736f6c634300080a0033",
  "devdoc": {
    "author": "dForce",
    "kind": "dev",
    "methods": {
      "_acceptOwner()": {
        "details": "Accepts the admin rights, but only for pendingOwenr."
      },
      "_setPendingOwner(address)": {
        "details": "Transfer contract control to a new owner. The newPendingOwner must call `_acceptOwner` to finish the transfer.",
        "params": {
          "newPendingOwner": "New pending owner."
        }
      },
      "getBLPValue(address)": {
        "details": "For external query value and status"
      },
      "getSupplyValue(address)": {
        "details": "For external query value and status"
      }
    },
    "stateVariables": {
      "BLPStakingPools": {
        "details": "EnumerableMap of all BLP Staking Pools"
      },
      "validSupplies": {
        "details": "Eligible supplied iToken"
      }
    },
    "title": "dForce's lending reward distributor Contract",
    "version": 1
  },
  "userdoc": {
    "kind": "user",
    "methods": {
      "BLPs(address)": {
        "notice": "the blp token of each blp staking pool"
      },
      "_setPendingOwner(address)": {
        "notice": "Base on the inputing parameter `newPendingOwner` to check the exact error reason."
      },
      "controller()": {
        "notice": "the controller"
      },
      "initialize(address,uint256)": {
        "notice": "Initializes the contract."
      },
      "isEligibilityManager()": {
        "notice": "Ensure this is a EligibilityManager contract."
      },
      "oracle()": {
        "notice": "the oracle"
      }
    },
    "version": 1
  },
  "storageLayout": {
    "storage": [
      {
        "astId": 6023,
        "contract": "src/EligibilityManager.sol:EligibilityManager",
        "label": "_initialized",
        "offset": 0,
        "slot": "0",
        "type": "t_bool"
      },
      {
        "astId": 6045,
        "contract": "src/EligibilityManager.sol:EligibilityManager",
        "label": "owner",
        "offset": 1,
        "slot": "0",
        "type": "t_address_payable"
      },
      {
        "astId": 6048,
        "contract": "src/EligibilityManager.sol:EligibilityManager",
        "label": "pendingOwner",
        "offset": 0,
        "slot": "1",
        "type": "t_address_payable"
      },
      {
        "astId": 6180,
        "contract": "src/EligibilityManager.sol:EligibilityManager",
        "label": "__gap",
        "offset": 0,
        "slot": "2",
        "type": "t_array(t_uint256)50_storage"
      },
      {
        "astId": 4455,
        "contract": "src/EligibilityManager.sol:EligibilityManager",
        "label": "controller",
        "offset": 0,
        "slot": "52",
        "type": "t_address"
      },
      {
        "astId": 4458,
        "contract": "src/EligibilityManager.sol:EligibilityManager",
        "label": "oracle",
        "offset": 0,
        "slot": "53",
        "type": "t_address"
      },
      {
        "astId": 4460,
        "contract": "src/EligibilityManager.sol:EligibilityManager",
        "label": "thresholdRatio",
        "offset": 0,
        "slot": "54",
        "type": "t_uint256"
      },
      {
        "astId": 4468,
        "contract": "src/EligibilityManager.sol:EligibilityManager",
        "label": "BLPStakingPools",
        "offset": 0,
        "slot": "55",
        "type": "t_struct(AddressSet)1145_storage"
      },
      {
        "astId": 4483,
        "contract": "src/EligibilityManager.sol:EligibilityManager",
        "label": "BLPs",
        "offset": 0,
        "slot": "57",
        "type": "t_mapping(t_address,t_address)"
      },
      {
        "astId": 4487,
        "contract": "src/EligibilityManager.sol:EligibilityManager",
        "label": "validSupplies",
        "offset": 0,
        "slot": "58",
        "type": "t_struct(AddressSet)1145_storage"
      }
    ],
    "types": {
      "t_address": {
        "encoding": "inplace",
        "label": "address",
        "numberOfBytes": "20"
      },
      "t_address_payable": {
        "encoding": "inplace",
        "label": "address payable",
        "numberOfBytes": "20"
      },
      "t_array(t_bytes32)dyn_storage": {
        "base": "t_bytes32",
        "encoding": "dynamic_array",
        "label": "bytes32[]",
        "numberOfBytes": "32"
      },
      "t_array(t_uint256)50_storage": {
        "base": "t_uint256",
        "encoding": "inplace",
        "label": "uint256[50]",
        "numberOfBytes": "1600"
      },
      "t_bool": {
        "encoding": "inplace",
        "label": "bool",
        "numberOfBytes": "1"
      },
      "t_bytes32": {
        "encoding": "inplace",
        "label": "bytes32",
        "numberOfBytes": "32"
      },
      "t_mapping(t_address,t_address)": {
        "encoding": "mapping",
        "key": "t_address",
        "label": "mapping(address => address)",
        "numberOfBytes": "32",
        "value": "t_address"
      },
      "t_mapping(t_bytes32,t_uint256)": {
        "encoding": "mapping",
        "key": "t_bytes32",
        "label": "mapping(bytes32 => uint256)",
        "numberOfBytes": "32",
        "value": "t_uint256"
      },
      "t_struct(AddressSet)1145_storage": {
        "encoding": "inplace",
        "label": "struct EnumerableSetUpgradeable.AddressSet",
        "members": [
          {
            "astId": 1144,
            "contract": "src/EligibilityManager.sol:EligibilityManager",
            "label": "_inner",
            "offset": 0,
            "slot": "0",
            "type": "t_struct(Set)830_storage"
          }
        ],
        "numberOfBytes": "64"
      },
      "t_struct(Set)830_storage": {
        "encoding": "inplace",
        "label": "struct EnumerableSetUpgradeable.Set",
        "members": [
          {
            "astId": 825,
            "contract": "src/EligibilityManager.sol:EligibilityManager",
            "label": "_values",
            "offset": 0,
            "slot": "0",
            "type": "t_array(t_bytes32)dyn_storage"
          },
          {
            "astId": 829,
            "contract": "src/EligibilityManager.sol:EligibilityManager",
            "label": "_indexes",
            "offset": 0,
            "slot": "1",
            "type": "t_mapping(t_bytes32,t_uint256)"
          }
        ],
        "numberOfBytes": "64"
      },
      "t_uint256": {
        "encoding": "inplace",
        "label": "uint256",
        "numberOfBytes": "32"
      }
    }
  }
}