{
  "address": "0xA9FAEc051954AA313b84aAC399a89aDe4583C808",
  "abi": [
    {
      "inputs": [
        {
          "internalType": "contract IController",
          "name": "_controller",
          "type": "address"
        },
        {
          "internalType": "contract IRewardDistributorManager",
          "name": "_manager",
          "type": "address"
        }
      ],
      "stateMutability": "nonpayable",
      "type": "constructor"
    },
    {
      "inputs": [],
      "name": "RewardDistributor__CallerIsNotRewardManager",
      "type": "error"
    },
    {
      "inputs": [],
      "name": "RewardDistributor__ContractPaused",
      "type": "error"
    },
    {
      "inputs": [],
      "name": "RewardDistributor_initialize__InvalidController",
      "type": "error"
    },
    {
      "inputs": [],
      "name": "RewardDistributor_initialize__InvalidRewardDistributorManager",
      "type": "error"
    },
    {
      "inputs": [],
      "name": "RewardDistributor_rescueTokens__CallerIsNotTreasury",
      "type": "error"
    },
    {
      "inputs": [],
      "name": "RewardDistributor_setBountyRatio__RatioTooHigh",
      "type": "error"
    },
    {
      "inputs": [
        {
          "internalType": "address",
          "name": "iToken",
          "type": "address"
        }
      ],
      "name": "RewardDistributor_setDistributionBorrowSpeed__TokenHasNotBeenListed",
      "type": "error"
    },
    {
      "inputs": [],
      "name": "RewardDistributor_setDistributionBorrowSpeedsInternal__ArrayLengthMismatch",
      "type": "error"
    },
    {
      "inputs": [
        {
          "internalType": "address",
          "name": "iToken",
          "type": "address"
        }
      ],
      "name": "RewardDistributor_setDistributionSupplySpeed__TokenHasNotBeenListed",
      "type": "error"
    },
    {
      "inputs": [],
      "name": "RewardDistributor_setDistributionSupplySpeedsInternal__ArrayLengthMismatch",
      "type": "error"
    },
    {
      "inputs": [],
      "name": "RewardDistributor_setRewardToken__InvalidRewardToken",
      "type": "error"
    },
    {
      "inputs": [],
      "name": "RewardDistributor_setTreasury__InvalidTreasury",
      "type": "error"
    },
    {
      "inputs": [
        {
          "internalType": "address",
          "name": "iToken",
          "type": "address"
        }
      ],
      "name": "RewardDistributor_updateDistributionState__TokenHasNotBeenListed",
      "type": "error"
    },
    {
      "inputs": [],
      "name": "RewardDistributor_updateReward__AccountIsZeroAddress",
      "type": "error"
    },
    {
      "inputs": [
        {
          "internalType": "address",
          "name": "iToken",
          "type": "address"
        }
      ],
      "name": "RewardDistributor_updateReward__TokenHasNotBeenListed",
      "type": "error"
    },
    {
      "anonymous": false,
      "inputs": [
        {
          "indexed": false,
          "internalType": "address",
          "name": "rewardToken",
          "type": "address"
        },
        {
          "indexed": false,
          "internalType": "address",
          "name": "hunter",
          "type": "address"
        },
        {
          "indexed": false,
          "internalType": "address",
          "name": "account",
          "type": "address"
        },
        {
          "indexed": false,
          "internalType": "uint256",
          "name": "bounty",
          "type": "uint256"
        },
        {
          "indexed": false,
          "internalType": "uint256",
          "name": "reward",
          "type": "uint256"
        }
      ],
      "name": "BountyClaimed",
      "type": "event"
    },
    {
      "anonymous": false,
      "inputs": [
        {
          "indexed": false,
          "internalType": "address",
          "name": "iToken",
          "type": "address"
        },
        {
          "indexed": false,
          "internalType": "uint256",
          "name": "borrowSpeed",
          "type": "uint256"
        }
      ],
      "name": "DistributionBorrowSpeedChanged",
      "type": "event"
    },
    {
      "anonymous": false,
      "inputs": [
        {
          "indexed": false,
          "internalType": "address",
          "name": "iToken",
          "type": "address"
        },
        {
          "indexed": false,
          "internalType": "uint256",
          "name": "supplySpeed",
          "type": "uint256"
        }
      ],
      "name": "DistributionSupplySpeedChanged",
      "type": "event"
    },
    {
      "anonymous": false,
      "inputs": [
        {
          "indexed": false,
          "internalType": "uint256",
          "name": "borrowSpeed",
          "type": "uint256"
        },
        {
          "indexed": false,
          "internalType": "uint256",
          "name": "supplySpeed",
          "type": "uint256"
        }
      ],
      "name": "GlobalDistributionSpeedsChanged",
      "type": "event"
    },
    {
      "anonymous": false,
      "inputs": [
        {
          "indexed": false,
          "internalType": "uint256",
          "name": "oldBountyRatio",
          "type": "uint256"
        },
        {
          "indexed": false,
          "internalType": "uint256",
          "name": "newBountyRatio",
          "type": "uint256"
        }
      ],
      "name": "NewBountyRatio",
      "type": "event"
    },
    {
      "anonymous": false,
      "inputs": [
        {
          "indexed": false,
          "internalType": "address",
          "name": "iToken",
          "type": "address"
        },
        {
          "indexed": false,
          "internalType": "uint256",
          "name": "oldDistributionFactorMantissa",
          "type": "uint256"
        },
        {
          "indexed": false,
          "internalType": "uint256",
          "name": "newDistributionFactorMantissa",
          "type": "uint256"
        }
      ],
      "name": "NewDistributionFactor",
      "type": "event"
    },
    {
      "anonymous": false,
      "inputs": [
        {
          "indexed": true,
          "internalType": "address",
          "name": "previousOwner",
          "type": "address"
        },
        {
          "indexed": true,
          "internalType": "address",
          "name": "newOwner",
          "type": "address"
        }
      ],
      "name": "NewOwner",
      "type": "event"
    },
    {
      "anonymous": false,
      "inputs": [
        {
          "indexed": true,
          "internalType": "address",
          "name": "oldPendingOwner",
          "type": "address"
        },
        {
          "indexed": true,
          "internalType": "address",
          "name": "newPendingOwner",
          "type": "address"
        }
      ],
      "name": "NewPendingOwner",
      "type": "event"
    },
    {
      "anonymous": false,
      "inputs": [
        {
          "indexed": false,
          "internalType": "address",
          "name": "iToken",
          "type": "address"
        },
        {
          "indexed": false,
          "internalType": "uint256",
          "name": "distributionFactor",
          "type": "uint256"
        }
      ],
      "name": "NewRecipient",
      "type": "event"
    },
    {
      "anonymous": false,
      "inputs": [
        {
          "indexed": false,
          "internalType": "address",
          "name": "oldRewardToken",
          "type": "address"
        },
        {
          "indexed": false,
          "internalType": "address",
          "name": "newRewardToken",
          "type": "address"
        }
      ],
      "name": "NewRewardToken",
      "type": "event"
    },
    {
      "anonymous": false,
      "inputs": [
        {
          "indexed": false,
          "internalType": "address",
          "name": "oldTreasury",
          "type": "address"
        },
        {
          "indexed": false,
          "internalType": "address",
          "name": "newTreasury",
          "type": "address"
        }
      ],
      "name": "NewTreasury",
      "type": "event"
    },
    {
      "anonymous": false,
      "inputs": [
        {
          "indexed": false,
          "internalType": "bool",
          "name": "paused",
          "type": "bool"
        }
      ],
      "name": "PausedChanged",
      "type": "event"
    },
    {
      "anonymous": false,
      "inputs": [
        {
          "indexed": false,
          "internalType": "address",
          "name": "iToken",
          "type": "address"
        },
        {
          "indexed": false,
          "internalType": "address",
          "name": "account",
          "type": "address"
        },
        {
          "indexed": false,
          "internalType": "uint256",
          "name": "amount",
          "type": "uint256"
        },
        {
          "indexed": false,
          "internalType": "uint256",
          "name": "accountIndex",
          "type": "uint256"
        }
      ],
      "name": "RewardDistributed",
      "type": "event"
    },
    {
      "inputs": [],
      "name": "_acceptOwner",
      "outputs": [],
      "stateMutability": "nonpayable",
      "type": "function"
    },
    {
      "inputs": [
        {
          "internalType": "address",
          "name": "_iToken",
          "type": "address"
        },
        {
          "internalType": "uint256",
          "name": "_distributionFactor",
          "type": "uint256"
        }
      ],
      "name": "_addRecipient",
      "outputs": [],
      "stateMutability": "nonpayable",
      "type": "function"
    },
    {
      "inputs": [],
      "name": "_pause",
      "outputs": [],
      "stateMutability": "nonpayable",
      "type": "function"
    },
    {
      "inputs": [
        {
          "internalType": "uint256",
          "name": "_bountyRatio",
          "type": "uint256"
        }
      ],
      "name": "_setBountyRatio",
      "outputs": [],
      "stateMutability": "nonpayable",
      "type": "function"
    },
    {
      "inputs": [
        {
          "internalType": "address[]",
          "name": "_iTokens",
          "type": "address[]"
        },
        {
          "internalType": "uint256[]",
          "name": "_borrowSpeeds",
          "type": "uint256[]"
        }
      ],
      "name": "_setDistributionBorrowSpeeds",
      "outputs": [],
      "stateMutability": "nonpayable",
      "type": "function"
    },
    {
      "inputs": [
        {
          "internalType": "address[]",
          "name": "_borrowiTokens",
          "type": "address[]"
        },
        {
          "internalType": "uint256[]",
          "name": "_borrowSpeeds",
          "type": "uint256[]"
        },
        {
          "internalType": "address[]",
          "name": "_supplyiTokens",
          "type": "address[]"
        },
        {
          "internalType": "uint256[]",
          "name": "_supplySpeeds",
          "type": "uint256[]"
        }
      ],
      "name": "_setDistributionSpeeds",
      "outputs": [],
      "stateMutability": "nonpayable",
      "type": "function"
    },
    {
      "inputs": [
        {
          "internalType": "address[]",
          "name": "_iTokens",
          "type": "address[]"
        },
        {
          "internalType": "uint256[]",
          "name": "_supplySpeeds",
          "type": "uint256[]"
        }
      ],
      "name": "_setDistributionSupplySpeeds",
      "outputs": [],
      "stateMutability": "nonpayable",
      "type": "function"
    },
    {
      "inputs": [
        {
          "internalType": "address payable",
          "name": "newPendingOwner",
          "type": "address"
        }
      ],
      "name": "_setPendingOwner",
      "outputs": [],
      "stateMutability": "nonpayable",
      "type": "function"
    },
    {
      "inputs": [
        {
          "internalType": "address",
          "name": "_newRewardToken",
          "type": "address"
        }
      ],
      "name": "_setRewardToken",
      "outputs": [],
      "stateMutability": "nonpayable",
      "type": "function"
    },
    {
      "inputs": [
        {
          "internalType": "address",
          "name": "_newTreasury",
          "type": "address"
        }
      ],
      "name": "_setTreasury",
      "outputs": [],
      "stateMutability": "nonpayable",
      "type": "function"
    },
    {
      "inputs": [
        {
          "internalType": "address[]",
          "name": "_borrowiTokens",
          "type": "address[]"
        },
        {
          "internalType": "uint256[]",
          "name": "_borrowSpeeds",
          "type": "uint256[]"
        },
        {
          "internalType": "address[]",
          "name": "_supplyiTokens",
          "type": "address[]"
        },
        {
          "internalType": "uint256[]",
          "name": "_supplySpeeds",
          "type": "uint256[]"
        }
      ],
      "name": "_unpause",
      "outputs": [],
      "stateMutability": "nonpayable",
      "type": "function"
    },
    {
      "inputs": [],
      "name": "bountyRatio",
      "outputs": [
        {
          "internalType": "uint256",
          "name": "",
          "type": "uint256"
        }
      ],
      "stateMutability": "view",
      "type": "function"
    },
    {
      "inputs": [
        {
          "internalType": "address[]",
          "name": "_holders",
          "type": "address[]"
        }
      ],
      "name": "claimAllReward",
      "outputs": [],
      "stateMutability": "nonpayable",
      "type": "function"
    },
    {
      "inputs": [
        {
          "internalType": "address",
          "name": "_account",
          "type": "address"
        },
        {
          "internalType": "address",
          "name": "_hunter",
          "type": "address"
        }
      ],
      "name": "claimBounty",
      "outputs": [],
      "stateMutability": "nonpayable",
      "type": "function"
    },
    {
      "inputs": [
        {
          "internalType": "address[]",
          "name": "_holders",
          "type": "address[]"
        },
        {
          "internalType": "address[]",
          "name": "_iTokens",
          "type": "address[]"
        }
      ],
      "name": "claimReward",
      "outputs": [],
      "stateMutability": "nonpayable",
      "type": "function"
    },
    {
      "inputs": [
        {
          "internalType": "address[]",
          "name": "_holders",
          "type": "address[]"
        },
        {
          "internalType": "address[]",
          "name": "_suppliediTokens",
          "type": "address[]"
        },
        {
          "internalType": "address[]",
          "name": "_borrowediTokens",
          "type": "address[]"
        }
      ],
      "name": "claimRewards",
      "outputs": [],
      "stateMutability": "nonpayable",
      "type": "function"
    },
    {
      "inputs": [],
      "name": "controller",
      "outputs": [
        {
          "internalType": "contract IController",
          "name": "",
          "type": "address"
        }
      ],
      "stateMutability": "view",
      "type": "function"
    },
    {
      "inputs": [
        {
          "internalType": "address",
          "name": "",
          "type": "address"
        }
      ],
      "name": "distributionBorrowState",
      "outputs": [
        {
          "internalType": "uint256",
          "name": "index",
          "type": "uint256"
        },
        {
          "internalType": "uint256",
          "name": "block",
          "type": "uint256"
        },
        {
          "internalType": "uint256",
          "name": "timestamp",
          "type": "uint256"
        }
      ],
      "stateMutability": "view",
      "type": "function"
    },
    {
      "inputs": [
        {
          "internalType": "address",
          "name": "",
          "type": "address"
        },
        {
          "internalType": "address",
          "name": "",
          "type": "address"
        }
      ],
      "name": "distributionBorrowerIndex",
      "outputs": [
        {
          "internalType": "uint256",
          "name": "",
          "type": "uint256"
        }
      ],
      "stateMutability": "view",
      "type": "function"
    },
    {
      "inputs": [
        {
          "internalType": "address",
          "name": "",
          "type": "address"
        }
      ],
      "name": "distributionFactorMantissa",
      "outputs": [
        {
          "internalType": "uint256",
          "name": "",
          "type": "uint256"
        }
      ],
      "stateMutability": "view",
      "type": "function"
    },
    {
      "inputs": [
        {
          "internalType": "address",
          "name": "",
          "type": "address"
        }
      ],
      "name": "distributionSpeed",
      "outputs": [
        {
          "internalType": "uint256",
          "name": "",
          "type": "uint256"
        }
      ],
      "stateMutability": "view",
      "type": "function"
    },
    {
      "inputs": [
        {
          "internalType": "address",
          "name": "",
          "type": "address"
        },
        {
          "internalType": "address",
          "name": "",
          "type": "address"
        }
      ],
      "name": "distributionSupplierIndex",
      "outputs": [
        {
          "internalType": "uint256",
          "name": "",
          "type": "uint256"
        }
      ],
      "stateMutability": "view",
      "type": "function"
    },
    {
      "inputs": [
        {
          "internalType": "address",
          "name": "",
          "type": "address"
        }
      ],
      "name": "distributionSupplySpeed",
      "outputs": [
        {
          "internalType": "uint256",
          "name": "",
          "type": "uint256"
        }
      ],
      "stateMutability": "view",
      "type": "function"
    },
    {
      "inputs": [
        {
          "internalType": "address",
          "name": "",
          "type": "address"
        }
      ],
      "name": "distributionSupplyState",
      "outputs": [
        {
          "internalType": "uint256",
          "name": "index",
          "type": "uint256"
        },
        {
          "internalType": "uint256",
          "name": "block",
          "type": "uint256"
        },
        {
          "internalType": "uint256",
          "name": "timestamp",
          "type": "uint256"
        }
      ],
      "stateMutability": "view",
      "type": "function"
    },
    {
      "inputs": [],
      "name": "globalDistributionSpeed",
      "outputs": [
        {
          "internalType": "uint256",
          "name": "",
          "type": "uint256"
        }
      ],
      "stateMutability": "view",
      "type": "function"
    },
    {
      "inputs": [],
      "name": "globalDistributionSupplySpeed",
      "outputs": [
        {
          "internalType": "uint256",
          "name": "",
          "type": "uint256"
        }
      ],
      "stateMutability": "view",
      "type": "function"
    },
    {
      "inputs": [
        {
          "internalType": "contract IController",
          "name": "_controller",
          "type": "address"
        },
        {
          "internalType": "contract IRewardDistributorManager",
          "name": "_manager",
          "type": "address"
        }
      ],
      "name": "initialize",
      "outputs": [],
      "stateMutability": "nonpayable",
      "type": "function"
    },
    {
      "inputs": [],
      "name": "isRewardDistributor",
      "outputs": [
        {
          "internalType": "bool",
          "name": "",
          "type": "bool"
        }
      ],
      "stateMutability": "pure",
      "type": "function"
    },
    {
      "inputs": [],
      "name": "manager",
      "outputs": [
        {
          "internalType": "contract IRewardDistributorManager",
          "name": "",
          "type": "address"
        }
      ],
      "stateMutability": "view",
      "type": "function"
    },
    {
      "inputs": [],
      "name": "owner",
      "outputs": [
        {
          "internalType": "address payable",
          "name": "",
          "type": "address"
        }
      ],
      "stateMutability": "view",
      "type": "function"
    },
    {
      "inputs": [],
      "name": "paused",
      "outputs": [
        {
          "internalType": "bool",
          "name": "",
          "type": "bool"
        }
      ],
      "stateMutability": "view",
      "type": "function"
    },
    {
      "inputs": [],
      "name": "pendingOwner",
      "outputs": [
        {
          "internalType": "address payable",
          "name": "",
          "type": "address"
        }
      ],
      "stateMutability": "view",
      "type": "function"
    },
    {
      "inputs": [
        {
          "internalType": "address",
          "name": "_token",
          "type": "address"
        },
        {
          "internalType": "uint256",
          "name": "_amount",
          "type": "uint256"
        },
        {
          "internalType": "address",
          "name": "_to",
          "type": "address"
        }
      ],
      "name": "rescueTokens",
      "outputs": [],
      "stateMutability": "nonpayable",
      "type": "function"
    },
    {
      "inputs": [
        {
          "internalType": "address",
          "name": "",
          "type": "address"
        }
      ],
      "name": "reward",
      "outputs": [
        {
          "internalType": "uint256",
          "name": "",
          "type": "uint256"
        }
      ],
      "stateMutability": "view",
      "type": "function"
    },
    {
      "inputs": [],
      "name": "rewardToken",
      "outputs": [
        {
          "internalType": "address",
          "name": "",
          "type": "address"
        }
      ],
      "stateMutability": "view",
      "type": "function"
    },
    {
      "inputs": [],
      "name": "treasury",
      "outputs": [
        {
          "internalType": "address",
          "name": "",
          "type": "address"
        }
      ],
      "stateMutability": "view",
      "type": "function"
    },
    {
      "inputs": [
        {
          "internalType": "address",
          "name": "_iToken",
          "type": "address"
        },
        {
          "internalType": "bool",
          "name": "_isBorrow",
          "type": "bool"
        }
      ],
      "name": "updateDistributionState",
      "outputs": [],
      "stateMutability": "nonpayable",
      "type": "function"
    },
    {
      "inputs": [
        {
          "internalType": "address",
          "name": "_iToken",
          "type": "address"
        },
        {
          "internalType": "address",
          "name": "_account",
          "type": "address"
        },
        {
          "internalType": "bool",
          "name": "_isBorrow",
          "type": "bool"
        }
      ],
      "name": "updateReward",
      "outputs": [],
      "stateMutability": "nonpayable",
      "type": "function"
    },
    {
      "inputs": [
        {
          "internalType": "address[]",
          "name": "_holders",
          "type": "address[]"
        },
        {
          "internalType": "address[]",
          "name": "_iTokens",
          "type": "address[]"
        }
      ],
      "name": "updateRewardBatch",
      "outputs": [],
      "stateMutability": "nonpayable",
      "type": "function"
    }
  ],
  "transactionHash": "0x5349a9538062e2dfcbec2189febacfc185a4e588e0fc4c08e7cd97ab18fbf850",
  "args": [
    "0x1cD0b4aFA81568F967c769d48607796A6A2E8B71",
    "0x176594654dEe63a269E800635e3f932FE06117C4"
  ],
  "numDeployments": 2,
  "solcInputHash": "948b493f3fdd6ceb86b7f229ce56a022",
  "bytecode": "0x60806040523480156200001157600080fd5b5060405162002e8e38038062002e8e833981016040819052620000349162000276565b62000040828262000048565b5050620002e0565b60005460ff1615620000b75760405162461bcd60e51b815260206004820152602e60248201527f496e697469616c697a61626c653a20636f6e747261637420697320616c72656160448201526d191e481a5b9a5d1a585b1a5e995960921b606482015260840160405180910390fd5b816001600160a01b0316634e1647fb6040518163ffffffff1660e01b8152600401602060405180830381865afa158015620000f6573d6000803e3d6000fd5b505050506040513d601f19601f820116820180604052508101906200011c9190620002b5565b6200013a57604051631ebe9fc760e31b815260040160405180910390fd5b806001600160a01b031663eb5bf95d6040518163ffffffff1660e01b8152600401602060405180830381865afa15801562000179573d6000803e3d6000fd5b505050506040513d601f19601f820116820180604052508101906200019f9190620002b5565b620001bd5760405163786b8ff960e01b815260040160405180910390fd5b620001c762000215565b603480546001600160a01b039384166001600160a01b03199182161790915560418054929093169116179055603d805460ff60a01b1916600160a01b1790556000805460ff19166001179055565b60008054610100600160a81b0319163361010081029190911782556040519091907f70aea8d848e8a90fb7661b227dc522eb6395c3dac71b63cb59edd5c9899b2364908290a3565b6001600160a01b03811681146200027357600080fd5b50565b600080604083850312156200028a57600080fd5b825162000297816200025d565b6020840151909250620002aa816200025d565b809150509250929050565b600060208284031215620002c857600080fd5b81518015158114620002d957600080fd5b9392505050565b612b9e80620002f06000396000f3fe608060405234801561001057600080fd5b506004361061023d5760003560e01c80637d3572fd1161013b578063caece2fe116100b8578063f7d6bdf21161007c578063f7d6bdf21461058c578063fc4d33f91461059f578063fca62699146105a7578063ff0427ca146105ba578063ff10302a146105da57600080fd5b8063caece2fe14610515578063ddcbb24514610528578063e30c397814610553578063f77c479114610566578063f7c618c11461057957600080fd5b8063a82e84e9116100ff578063a82e84e9146104a9578063acea9d4d146104bc578063b37fd190146104dc578063bdfa0c99146104ef578063c88bf5e81461050257600080fd5b80637d3572fd146104425780638ceb13d4146104555780638da5cb5b146104685780638de4821914610480578063a1fcb8fc146104a057600080fd5b806349318865116101c95780635f1c86651161018d5780635f1c8665146103ba57806361d027b3146103cd5780636353586b146103e05780636864e3ea146104005780636e96dfd71461042f57600080fd5b8063493188651461035457806353889535146103675780635658fec31461037a5780635c267f6d1461038d5780635c975abb1461039657600080fd5b806338f1f57f1161021057806338f1f57f146102e75780633f7d00f5146102fa57806342e7728414610303578063481c6a7514610316578063485cc9551461034157600080fd5b806320f18edd146102425780632a08922c14610291578063320b2ad9146102a6578063340c3df8146102ae575b600080fd5b61027161025036600461245a565b60386020526000908152604090208054600182015460029092015490919083565b604080519384526020840192909252908201526060015b60405180910390f35b6102a461029f36600461245a565b6105e1565b005b6102a46106c2565b6102d96102bc366004612477565b603b60209081526000928352604080842090915290825290205481565b604051908152602001610288565b6102a46102f53660046124fc565b6107e3565b6102d960425481565b6102a461031136600461269f565b61091e565b604154610329906001600160a01b031681565b6040516001600160a01b039091168152602001610288565b6102a461034f366004612477565b6109cb565b6102a46103623660046126d4565b610b89565b6102a46103753660046126ed565b610c1f565b6102a4610388366004612759565b610cf4565b6102d9603f5481565b603d546103aa90600160a01b900460ff1681565b6040519015158152602001610288565b6102a46103c8366004612785565b610ddd565b604054610329906001600160a01b031681565b6102d96103ee36600461245a565b603c6020526000908152604090205481565b61027161040e36600461245a565b60396020526000908152604090208054600182015460029092015490919083565b6102a461043d36600461245a565b610e9f565b6102a46104503660046127f7565b610fcc565b6102a4610463366004612477565b610fd7565b6000546103299061010090046001600160a01b031681565b6102d961048e36600461245a565b603e6020526000908152604090205481565b6102d960355481565b6102a46104b7366004612842565b6110ff565b6102d96104ca36600461245a565b60376020526000908152604090205481565b6102a46104ea3660046128ca565b6111d8565b6102a46104fd366004612785565b611217565b6102a46105103660046126ed565b6112e2565b6102a4610523366004612901565b6113a9565b6102d9610536366004612477565b603a60209081526000928352604080842090915290825290205481565b600154610329906001600160a01b031681565b603454610329906001600160a01b031681565b603d54610329906001600160a01b031681565b6102a461059a36600461245a565b6113c9565b6102a461149c565b6102a46105b53660046124fc565b6115b2565b6102d96105c836600461245a565b60366020526000908152604090205481565b60016103aa565b60005461010090046001600160a01b031633146106195760405162461bcd60e51b81526004016106109061292f565b60405180910390fd5b6040546001600160a01b0390811690821615806106475750806001600160a01b0316826001600160a01b0316145b1561066557604051639373097560e01b815260040160405180910390fd5b604080546001600160a01b0319166001600160a01b0384811691821783558251908416815260208101919091527f567657fa3f286518b318f4a29870674f433f622fdfc819691acb13105b22822591015b60405180910390a15050565b60005461010090046001600160a01b031633146106f15760405162461bcd60e51b81526004016106109061292f565b603454604080516360a8a93160e01b815290516000926001600160a01b0316916360a8a93191600480830192869291908290030181865afa15801561073a573d6000803e3d6000fd5b505050506040513d6000823e601f3d908101601f191682016040526107629190810190612971565b805190915060005b818110156107cc5761079683828151811061078757610787612a00565b602002602001015160006115eb565b6107ba8382815181106107ab576107ab612a00565b602002602001015160006116dd565b806107c481612a2c565b91505061076a565b506107d56117cf565b6107df600161193d565b5050565b60005461010090046001600160a01b031633146108125760405162461bcd60e51b81526004016106109061292f565b603d54600160a01b900460ff161561083d57604051639930363560e01b815260040160405180910390fd5b61090c88888080602002602001604051908101604052809392919081815260200183836020028082843760009201919091525050604080516020808c0282810182019093528b82529093508b92508a91829185019084908082843760009201919091525050604080516020808b0282810182019093528a82529093508a92508991829185019084908082843760009201919091525050604080516020808a0282810182019093528982529093508992508891829185019084908082843760009201919091525061199592505050565b6109146117cf565b5050505050505050565b6041546001600160a01b0316331461094957604051633a45e5f360e21b815260040160405180910390fd5b6109c881603460009054906101000a90046001600160a01b03166001600160a01b03166360a8a9316040518163ffffffff1660e01b8152600401600060405180830381865afa1580156109a0573d6000803e3d6000fd5b505050506040513d6000823e601f3d908101601f191682016040526104fd9190810190612971565b50565b60005460ff1615610a355760405162461bcd60e51b815260206004820152602e60248201527f496e697469616c697a61626c653a20636f6e747261637420697320616c72656160448201526d191e481a5b9a5d1a585b1a5e995960921b6064820152608401610610565b816001600160a01b0316634e1647fb6040518163ffffffff1660e01b8152600401602060405180830381865afa158015610a73573d6000803e3d6000fd5b505050506040513d601f19601f82011682018060405250810190610a979190612a47565b610ab457604051631ebe9fc760e31b815260040160405180910390fd5b806001600160a01b031663eb5bf95d6040518163ffffffff1660e01b8152600401602060405180830381865afa158015610af2573d6000803e3d6000fd5b505050506040513d601f19601f82011682018060405250810190610b169190612a47565b610b335760405163786b8ff960e01b815260040160405180910390fd5b610b3b6119a9565b603480546001600160a01b039384166001600160a01b03199182161790915560418054929093169116179055603d805460ff60a01b1916600160a01b1790556000805460ff19166001179055565b60005461010090046001600160a01b03163314610bb85760405162461bcd60e51b81526004016106109061292f565b67016345785d8a0000811115610be157604051630c2ee60760e41b815260040160405180910390fd5b604280549082905560408051828152602081018490527f1c455768ccd776125cf627db9acaecb45b00b587a0eecb26d97be99e780efeab91016106b6565b60005461010090046001600160a01b03163314610c4e5760405162461bcd60e51b81526004016106109061292f565b603d54600160a01b900460ff1615610c7957604051639930363560e01b815260040160405180910390fd5b610ce6848480806020026020016040519081016040528093929190818152602001838360200280828437600092019190915250506040805160208088028281018201909352878252909350879250869182918501908490808284376000920191909152506119f192505050565b610cee6117cf565b50505050565b6041546001600160a01b03163314610d1f57604051633a45e5f360e21b815260040160405180910390fd5b6001600160a01b03821660008181526037602090815260408083208590558051606080820183528482524382850181815242848601818152898952603888528689209551865591516001808701919091559151600295860155855193840186528784528387019283528386019081528888526039875296859020925183559051908201559351930192909255815192835282018390527f182e1c0b34607d1b7c3312ff9a78e613c0a4c045d1460fd236374d04b5c2954f91016106b6565b60005b8151811015610e9a576000828281518110610dfd57610dfd612a00565b60200260200101519050610e12816000611a6e565b610e1d816001611a6e565b60005b8451811015610e8557610e4e82868381518110610e3f57610e3f612a00565b60200260200101516000611ce7565b610e7382868381518110610e6457610e64612a00565b60200260200101516001611ce7565b80610e7d81612a2c565b915050610e20565b50508080610e9290612a2c565b915050610de0565b505050565b60005461010090046001600160a01b03163314610ece5760405162461bcd60e51b81526004016106109061292f565b6001600160a01b03811615801590610ef457506001546001600160a01b03828116911614155b610f7a5760405162461bcd60e51b815260206004820152604b60248201527f5f73657450656e64696e674f776e65723a204e6577206f77656e722063616e2060448201527f6e6f74206265207a65726f206164647265737320616e64206f776e657220686160648201526a73206265656e207365742160a81b608482015260a401610610565b600180546001600160a01b038381166001600160a01b0319831681179093556040519116919082907fb3d55174552271a4f1aaf36b72f50381e892171636b3fb5447fe00e995e7a37b90600090a35050565b610e9a838383611ce7565b6041546001600160a01b0316331461100257604051633a45e5f360e21b815260040160405180910390fd5b6001600160a01b0382166000908152603c60205260409020548015610e9a576001600160a01b0383166000908152603c6020526040812081905560425461104a908390612005565b604054603d5491925061106b916001600160a01b039081169116858461202b565b60405461109a906001600160a01b0316856110868486612a64565b603d546001600160a01b031692919061202b565b603d54604080516001600160a01b03928316815285831660208201529186169082015260608101829052608081018390527fe4ef9b6ca5bc6ad14e41aef6830d82a4728585a30713f7960de7446f5c610f429060a0015b60405180910390a150505050565b6041546001600160a01b0316331461112a57604051633a45e5f360e21b815260040160405180910390fd5b61113683836000612096565b61114283826001612096565b60005b8351811015610cee57600084828151811061116257611162612a00565b6020908102919091018101516001600160a01b0381166000908152603c90925260409091205490915080156111c3576001600160a01b038083166000908152603c60205260408082209190915554603d546111c3929081169116848461202b565b505080806111d090612a2c565b915050611145565b6040546001600160a01b031633146112035760405163095bdd5360e21b815260040160405180910390fd5b610e9a6001600160a01b0384168284612121565b6041546001600160a01b0316331461124257604051633a45e5f360e21b815260040160405180910390fd5b61124c8282610ddd565b60005b8251811015610e9a57600083828151811061126c5761126c612a00565b6020908102919091018101516001600160a01b0381166000908152603c90925260409091205490915080156112cd576001600160a01b038083166000908152603c60205260408082209190915554603d546112cd929081169116848461202b565b505080806112da90612a2c565b91505061124f565b60005461010090046001600160a01b031633146113115760405162461bcd60e51b81526004016106109061292f565b603d54600160a01b900460ff161561133c57604051639930363560e01b815260040160405180910390fd5b610ce68484808060200260200160405190810160405280939291908181526020018383602002808284376000920191909152505060408051602080880282810182019093528782529093508792508691829185019084908082843760009201919091525061215192505050565b603d54600160a01b900460ff16156113bf575050565b6107df8282611a6e565b60005461010090046001600160a01b031633146113f85760405162461bcd60e51b81526004016106109061292f565b603d546001600160a01b0390811690821615806114265750806001600160a01b0316826001600160a01b0316145b15611444576040516303788dd960e11b815260040160405180910390fd5b603d80546001600160a01b0319166001600160a01b0384811691821790925560408051928416835260208301919091527f7bdb05f6c3fc55361bbc64ceeb084448a135da92bade17eb83ea386a431aa49291016106b6565b6001546001600160a01b031633146115045760405162461bcd60e51b815260206004820152602560248201527f5f6163636570744f776e65723a204f6e6c7920666f722070656e64696e67206f604482015264776e65722160d81b6064820152608401610610565b60008054600180546001600160a01b03818116610100818102610100600160a81b03198716178088556001600160a01b031990941690945560405194849004821695909493909204169184917f70aea8d848e8a90fb7661b227dc522eb6395c3dac71b63cb59edd5c9899b236491a36001546040516001600160a01b03918216918316907fb3d55174552271a4f1aaf36b72f50381e892171636b3fb5447fe00e995e7a37b90600090a35050565b60005461010090046001600160a01b031633146115e15760405162461bcd60e51b81526004016106109061292f565b61083d600061193d565b603454604051632214743160e11b81526001600160a01b03848116600483015290911690634428e86290602401602060405180830381865afa158015611635573d6000803e3d6000fd5b505050506040513d601f19601f820116820180604052508101906116599190612a47565b61168157604051635a1896a360e11b81526001600160a01b0383166004820152602401610610565b61168c826001611a6e565b6001600160a01b038216600081815260366020908152604091829020849055815192835282018390527fc166a4ce2a20ceba9db9ef1b63803b25bca50a30d1fae6587eced7cc29366e9891016106b6565b603454604051632214743160e11b81526001600160a01b03848116600483015290911690634428e86290602401602060405180830381865afa158015611727573d6000803e3d6000fd5b505050506040513d601f19601f8201168201806040525081019061174b9190612a47565b61177357604051630967edbf60e01b81526001600160a01b0383166004820152602401610610565b61177e826000611a6e565b6001600160a01b0382166000818152603e6020908152604091829020849055815192835282018390527f76037bc3f78973da9e019b9d16cf5396ca9d59f32ba6994c4325bdea7e0d5c1191016106b6565b603454604080516360a8a93160e01b815290516000926001600160a01b0316916360a8a93191600480830192869291908290030181865afa158015611818573d6000803e3d6000fd5b505050506040513d6000823e601f3d908101601f191682016040526118409190810190612971565b8051909150600080805b838110156118fc576036600086838151811061186857611868612a00565b60200260200101516001600160a01b03166001600160a01b03168152602001908152602001600020548361189c9190612a7b565b9250603e60008683815181106118b4576118b4612a00565b60200260200101516001600160a01b03166001600160a01b0316815260200190815260200160002054826118e89190612a7b565b9150806118f481612a2c565b91505061184a565b506035829055603f81905560408051838152602081018390527fd36b3d23325a889a30950d79f56fc3a25c517ff2956d2273645dca7a727889bb91016110f1565b603d8054821515600160a01b0260ff60a01b199091161790556040517fd83d5281277e107f080e362699d46082adb74e7dc6a9bccbc87d8ae9533add449061198a90831515815260200190565b60405180910390a150565b61199f8484612151565b610cee82826119f1565b60008054610100600160a81b0319163361010081029190911782556040519091907f70aea8d848e8a90fb7661b227dc522eb6395c3dac71b63cb59edd5c9899b2364908290a3565b8051825114611a13576040516353df09e960e11b815260040160405180910390fd5b815160005b81811015610cee57611a5c848281518110611a3557611a35612a00565b6020026020010151848381518110611a4f57611a4f612a00565b60200260200101516116dd565b80611a6681612a2c565b915050611a18565b603454604051632214743160e11b81526001600160a01b03848116600483015290911690634428e86290602401602060405180830381865afa158015611ab8573d6000803e3d6000fd5b505050506040513d601f19601f82011682018060405250810190611adc9190612a47565b611b0457604051632be246d160e21b81526001600160a01b0383166004820152602401610610565b600081611b28576001600160a01b0383166000908152603860205260409020611b41565b6001600160a01b03831660009081526039602052604090205b9050600082611b68576001600160a01b0384166000908152603e6020526040902054611b82565b6001600160a01b0384166000908152603660205260409020545b60028301549091504290600090611b999083612a64565b9050600081118015611bab5750600083115b15611cd857600085611c2a576041546040516306bad18d60e11b81526001600160a01b03898116600483015290911690630d75a31a90602401602060405180830381865afa158015611c01573d6000803e3d6000fd5b505050506040513d601f19601f82011682018060405250810190611c259190612a93565b611c98565b604154604051637829db0160e01b81526001600160a01b03898116600483015290911690637829db0190602401602060405180830381865afa158015611c74573d6000803e3d6000fd5b505050506040513d601f19601f82011682018060405250810190611c989190612a93565b90506000611ca68386612aac565b90506000808311611cb8576000611cc2565b611cc282846121ce565b8754909150611cd2908290612a7b565b87555050505b50600290920191909155505050565b6001600160a01b038216611d0e576040516398dd2fc360e01b815260040160405180910390fd5b603454604051632214743160e11b81526001600160a01b03858116600483015290911690634428e86290602401602060405180830381865afa158015611d58573d6000803e3d6000fd5b505050506040513d601f19601f82011682018060405250810190611d7c9190612a47565b611da4576040516378eb36af60e01b81526001600160a01b0384166004820152602401610610565b60008060008315611e81576001600160a01b03868116600081815260396020908152604080832054603b83528184208b8716808652935292819020546041549151636471ffa360e01b815260048101959095526024850192909252919650945090911690636471ffa390604401602060405180830381865afa158015611e2e573d6000803e3d6000fd5b505050506040513d601f19601f82011682018060405250810190611e529190612a93565b6001600160a01b038088166000908152603b60209081526040808320938a168352929052208490559050611f4f565b6001600160a01b03868116600081815260386020908152604080832054603a83528184208b8716808652935292819020546041549151633b97da7b60e11b81526004810195909552602485019290925291965094509091169063772fb4f690604401602060405180830381865afa158015611f00573d6000803e3d6000fd5b505050506040513d601f19601f82011682018060405250810190611f249190612a93565b6001600160a01b038088166000908152603a60209081526040808320938a1683529290522084905590505b6000611f5b8385612a64565b90506000611f698383612005565b90508015610914576001600160a01b0387166000908152603c6020526040902054611f95908290612a7b565b6001600160a01b038881166000818152603c6020908152604091829020949094558051928c16835292820152908101829052606081018590527fd53ea54cd361f7c49d3ca11bfcb71b4783448ade1b32513783ee19776f2adf319060800160405180910390a15050505050505050565b6000670de0b6b3a764000061201a8385612aac565b6120249190612acb565b9392505050565b6040516001600160a01b0380851660248301528316604482015260648101829052610cee9085906323b872dd60e01b906084015b60408051601f198184030181529190526020810180516001600160e01b03166001600160e01b0319909316929092179091526121e3565b60005b8251811015610cee5760008382815181106120b6576120b6612a00565b602002602001015190506120ca8184611a6e565b60005b855181101561210c576120fa828783815181106120ec576120ec612a00565b602002602001015186611ce7565b8061210481612a2c565b9150506120cd565b5050808061211990612a2c565b915050612099565b6040516001600160a01b038316602482015260448101829052610e9a90849063a9059cbb60e01b9060640161205f565b80518251146121735760405163c86dd41b60e01b815260040160405180910390fd5b815160005b81811015610cee576121bc84828151811061219557612195612a00565b60200260200101518483815181106121af576121af612a00565b60200260200101516115eb565b806121c681612a2c565b915050612178565b60008161201a670de0b6b3a764000085612aac565b6000612238826040518060400160405280602081526020017f5361666545524332303a206c6f772d6c6576656c2063616c6c206661696c6564815250856001600160a01b03166122b89092919063ffffffff16565b90508051600014806122595750808060200190518101906122599190612a47565b610e9a5760405162461bcd60e51b815260206004820152602a60248201527f5361666545524332303a204552433230206f7065726174696f6e20646964206e6044820152691bdd081cdd58d8d9595960b21b6064820152608401610610565b60606122c784846000856122cf565b949350505050565b6060824710156123305760405162461bcd60e51b815260206004820152602660248201527f416464726573733a20696e73756666696369656e742062616c616e636520666f6044820152651c8818d85b1b60d21b6064820152608401610610565b600080866001600160a01b0316858760405161234c9190612b19565b60006040518083038185875af1925050503d8060008114612389576040519150601f19603f3d011682016040523d82523d6000602084013e61238e565b606091505b509150915061239f878383876123aa565b979650505050505050565b6060831561241657825161240f576001600160a01b0385163b61240f5760405162461bcd60e51b815260206004820152601d60248201527f416464726573733a2063616c6c20746f206e6f6e2d636f6e74726163740000006044820152606401610610565b50816122c7565b6122c7838381511561242b5781518083602001fd5b8060405162461bcd60e51b81526004016106109190612b35565b6001600160a01b03811681146109c857600080fd5b60006020828403121561246c57600080fd5b813561202481612445565b6000806040838503121561248a57600080fd5b823561249581612445565b915060208301356124a581612445565b809150509250929050565b60008083601f8401126124c257600080fd5b50813567ffffffffffffffff8111156124da57600080fd5b6020830191508360208260051b85010111156124f557600080fd5b9250929050565b6000806000806000806000806080898b03121561251857600080fd5b883567ffffffffffffffff8082111561253057600080fd5b61253c8c838d016124b0565b909a50985060208b013591508082111561255557600080fd5b6125618c838d016124b0565b909850965060408b013591508082111561257a57600080fd5b6125868c838d016124b0565b909650945060608b013591508082111561259f57600080fd5b506125ac8b828c016124b0565b999c989b5096995094979396929594505050565b634e487b7160e01b600052604160045260246000fd5b604051601f8201601f1916810167ffffffffffffffff811182821017156125ff576125ff6125c0565b604052919050565b600067ffffffffffffffff821115612621576126216125c0565b5060051b60200190565b600082601f83011261263c57600080fd5b8135602061265161264c83612607565b6125d6565b82815260059290921b8401810191818101908684111561267057600080fd5b8286015b8481101561269457803561268781612445565b8352918301918301612674565b509695505050505050565b6000602082840312156126b157600080fd5b813567ffffffffffffffff8111156126c857600080fd5b6122c78482850161262b565b6000602082840312156126e657600080fd5b5035919050565b6000806000806040858703121561270357600080fd5b843567ffffffffffffffff8082111561271b57600080fd5b612727888389016124b0565b9096509450602087013591508082111561274057600080fd5b5061274d878288016124b0565b95989497509550505050565b6000806040838503121561276c57600080fd5b823561277781612445565b946020939093013593505050565b6000806040838503121561279857600080fd5b823567ffffffffffffffff808211156127b057600080fd5b6127bc8683870161262b565b935060208501359150808211156127d257600080fd5b506127df8582860161262b565b9150509250929050565b80151581146109c857600080fd5b60008060006060848603121561280c57600080fd5b833561281781612445565b9250602084013561282781612445565b91506040840135612837816127e9565b809150509250925092565b60008060006060848603121561285757600080fd5b833567ffffffffffffffff8082111561286f57600080fd5b61287b8783880161262b565b9450602086013591508082111561289157600080fd5b61289d8783880161262b565b935060408601359150808211156128b357600080fd5b506128c08682870161262b565b9150509250925092565b6000806000606084860312156128df57600080fd5b83356128ea81612445565b925060208401359150604084013561283781612445565b6000806040838503121561291457600080fd5b823561291f81612445565b915060208301356124a5816127e9565b60208082526022908201527f6f6e6c794f776e65723a2063616c6c6572206973206e6f7420746865206f776e60408201526132b960f11b606082015260800190565b6000602080838503121561298457600080fd5b825167ffffffffffffffff81111561299b57600080fd5b8301601f810185136129ac57600080fd5b80516129ba61264c82612607565b81815260059190911b820183019083810190878311156129d957600080fd5b928401925b8284101561239f5783516129f181612445565b825292840192908401906129de565b634e487b7160e01b600052603260045260246000fd5b634e487b7160e01b600052601160045260246000fd5b6000600019821415612a4057612a40612a16565b5060010190565b600060208284031215612a5957600080fd5b8151612024816127e9565b600082821015612a7657612a76612a16565b500390565b60008219821115612a8e57612a8e612a16565b500190565b600060208284031215612aa557600080fd5b5051919050565b6000816000190483118215151615612ac657612ac6612a16565b500290565b600082612ae857634e487b7160e01b600052601260045260246000fd5b500490565b60005b83811015612b08578181015183820152602001612af0565b83811115610cee5750506000910152565b60008251612b2b818460208701612aed565b9190910192915050565b6020815260008251806020840152612b54816040850160208701612aed565b601f01601f1916919091016040019291505056fea2646970667358221220070120901c35bc4f565d50ef3a654896440c295f223fcbb7448f9be22f66bd3864736f6c634300080a0033",
  "devdoc": {
    "author": "dForce",
    "kind": "dev",
    "methods": {
      "_acceptOwner()": {
        "details": "Accepts the admin rights, but only for pendingOwenr."
      },
      "_addRecipient(address,uint256)": {
        "details": "Admin function, only controller can call this",
        "params": {
          "_distributionFactor": "the distribution factor of the recipient",
          "_iToken": "the iToken to add as recipient"
        }
      },
      "_pause()": {
        "details": "Admin function, pause will set global speed to 0 to stop the accumulation"
      },
      "_setBountyRatio(uint256)": {
        "params": {
          "_bountyRatio": "the ratio in 1e18"
        }
      },
      "_setDistributionBorrowSpeeds(address[],uint256[])": {
        "details": "Admin function, will fail when paused",
        "params": {
          "_borrowSpeeds": "The borrow speed array",
          "_iTokens": "The borrow asset array"
        }
      },
      "_setDistributionSpeeds(address[],uint256[],address[],uint256[])": {
        "details": "Admin function, will fail when paused",
        "params": {
          "_borrowSpeeds": "The borrow speed array",
          "_borrowiTokens": "The borrow asset array",
          "_supplySpeeds": "The supply speed array",
          "_supplyiTokens": "The supply asset array"
        }
      },
      "_setDistributionSupplySpeeds(address[],uint256[])": {
        "details": "Admin function, will fail when paused",
        "params": {
          "_iTokens": "The supply asset array",
          "_supplySpeeds": "The supply speed array"
        }
      },
      "_setPendingOwner(address)": {
        "details": "Transfer contract control to a new owner. The newPendingOwner must call `_acceptOwner` to finish the transfer.",
        "params": {
          "newPendingOwner": "New pending owner."
        }
      },
      "_setRewardToken(address)": {
        "details": "Admin function, only owner can call this",
        "params": {
          "_newRewardToken": "the address of reward token"
        }
      },
      "_setTreasury(address)": {
        "details": "Admin function, only owner can call this",
        "params": {
          "_newTreasury": "the address of treasury"
        }
      },
      "_unpause(address[],uint256[],address[],uint256[])": {
        "details": "Admin function",
        "params": {
          "_borrowSpeeds": "The borrow speed array",
          "_borrowiTokens": "The borrow asset array",
          "_supplySpeeds": "The supply speed array",
          "_supplyiTokens": "The supply asset array"
        }
      },
      "claimAllReward(address[])": {
        "params": {
          "_holders": "The account to claim for"
        }
      },
      "claimReward(address[],address[])": {
        "params": {
          "_holders": "The account to claim for",
          "_iTokens": "The _iTokens to claim from"
        }
      },
      "claimRewards(address[],address[],address[])": {
        "params": {
          "_borrowediTokens": "The _borrowediTokens to claim from",
          "_holders": "The account to claim for",
          "_suppliediTokens": "The _suppliediTokens to claim from"
        }
      },
      "rescueTokens(address,uint256,address)": {
        "params": {
          "_amount": "The amount of token to rescue",
          "_to": "The token to send to",
          "_token": "The token to rescue"
        }
      },
      "updateDistributionState(address,bool)": {
        "details": "Will be called every time when the iToken's supply/borrow changes",
        "params": {
          "_iToken": "The iToken to be updated",
          "_isBorrow": "whether to update the borrow state"
        }
      },
      "updateReward(address,address,bool)": {
        "details": "Will be called every time when the account's supply/borrow changes",
        "params": {
          "_account": "The account to be updated",
          "_iToken": "The iToken to be updated",
          "_isBorrow": "whether to update the borrow state"
        }
      },
      "updateRewardBatch(address[],address[])": {
        "params": {
          "_holders": "The account to update",
          "_iTokens": "The _iTokens to update"
        }
      }
    },
    "title": "dForce's lending reward distributor Contract",
    "version": 1
  },
  "userdoc": {
    "events": {
      "BountyClaimed(address,address,address,uint256,uint256)": {
        "notice": "Emitted when bounty is claimed by a hunter"
      },
      "DistributionBorrowSpeedChanged(address,uint256)": {
        "notice": "Emitted when iToken's Distribution borrow speed is updated"
      },
      "DistributionSupplySpeedChanged(address,uint256)": {
        "notice": "Emitted when iToken's Distribution supply speed is updated"
      },
      "GlobalDistributionSpeedsChanged(uint256,uint256)": {
        "notice": "Emitted when Global Distribution speed for both supply and borrow are updated"
      },
      "NewBountyRatio(uint256,uint256)": {
        "notice": "Emitted when bounty ratio is changed by admin"
      },
      "NewDistributionFactor(address,uint256,uint256)": {
        "notice": "Emitted when iToken's Distribution factor is changed by admin"
      },
      "NewRewardToken(address,address)": {
        "notice": "Emitted reward token address is changed by admin"
      },
      "NewTreasury(address,address)": {
        "notice": "Emitted treasury address is changed by admin"
      },
      "PausedChanged(bool)": {
        "notice": "Emitted when mint is paused/unpaused by admin"
      },
      "RewardDistributed(address,address,uint256,uint256)": {
        "notice": "Emitted when reward of amount is distributed into account"
      }
    },
    "kind": "user",
    "methods": {
      "_addRecipient(address,uint256)": {
        "notice": "Add the iToken as receipient"
      },
      "_pause()": {
        "notice": "Pause the reward distribution"
      },
      "_setBountyRatio(uint256)": {
        "notice": "Set bounty ratio by admin"
      },
      "_setDistributionBorrowSpeeds(address[],uint256[])": {
        "notice": "Set borrow distribution speeds"
      },
      "_setDistributionSpeeds(address[],uint256[],address[],uint256[])": {
        "notice": "Set distribution speeds"
      },
      "_setDistributionSupplySpeeds(address[],uint256[])": {
        "notice": "Set supply distribution speeds"
      },
      "_setPendingOwner(address)": {
        "notice": "Base on the inputing parameter `newPendingOwner` to check the exact error reason."
      },
      "_setRewardToken(address)": {
        "notice": "set reward token address"
      },
      "_setTreasury(address)": {
        "notice": "set new treasury address"
      },
      "_unpause(address[],uint256[],address[],uint256[])": {
        "notice": "Unpause and set distribution speeds"
      },
      "bountyRatio()": {
        "notice": "the ratio of bounty hunter to collect from reward"
      },
      "claimAllReward(address[])": {
        "notice": "Claim reward accrued in all iTokens by the holders"
      },
      "claimReward(address[],address[])": {
        "notice": "Claim reward accrued in iTokens by the holders"
      },
      "claimRewards(address[],address[],address[])": {
        "notice": "Claim reward accrued in iTokens by the holders"
      },
      "controller()": {
        "notice": "the controller"
      },
      "distributionBorrowState(address)": {
        "notice": "the Reward distribution borrow state of each iToken"
      },
      "distributionBorrowerIndex(address,address)": {
        "notice": "the Reward distribution state of each account of each iToken"
      },
      "distributionFactorMantissa(address)": {
        "notice": "the Reward distribution factor of each iToken, 1.0 by default. stored as a mantissa"
      },
      "distributionSpeed(address)": {
        "notice": "the Reward distribution speed of each iToken"
      },
      "distributionSupplierIndex(address,address)": {
        "notice": "the Reward distribution state of each account of each iToken"
      },
      "distributionSupplySpeed(address)": {
        "notice": "the Reward distribution speed supply side of each iToken"
      },
      "distributionSupplyState(address)": {
        "notice": "the Reward distribution supply state of each iToken"
      },
      "globalDistributionSpeed()": {
        "notice": "the global Reward distribution speed"
      },
      "globalDistributionSupplySpeed()": {
        "notice": "the global Reward distribution speed for supply"
      },
      "initialize(address,address)": {
        "notice": "Initializes the contract."
      },
      "isRewardDistributor()": {
        "notice": "Ensure this is a RewardDistributor contract."
      },
      "manager()": {
        "notice": "the reward distributor manager address where eligible balances is stored"
      },
      "paused()": {
        "notice": "whether the reward distribution is paused"
      },
      "rescueTokens(address,uint256,address)": {
        "notice": "Rescue tokens, can only be called by treasury"
      },
      "reward(address)": {
        "notice": "the Reward distributed into each account"
      },
      "rewardToken()": {
        "notice": "the Reward token address"
      },
      "treasury()": {
        "notice": "the treasury address where the reward is stored"
      },
      "updateDistributionState(address,bool)": {
        "notice": "Update the iToken's  Reward distribution state"
      },
      "updateReward(address,address,bool)": {
        "notice": "Update the account's Reward distribution state"
      },
      "updateRewardBatch(address[],address[])": {
        "notice": "Update reward accrued in iTokens by the holders regardless of paused or not"
      }
    },
    "version": 1
  },
  "storageLayout": {
    "storage": [
      {
        "astId": 11241,
        "contract": "src/RewardDistributor.sol:RewardDistributor",
        "label": "_initialized",
        "offset": 0,
        "slot": "0",
        "type": "t_bool"
      },
      {
        "astId": 11263,
        "contract": "src/RewardDistributor.sol:RewardDistributor",
        "label": "owner",
        "offset": 1,
        "slot": "0",
        "type": "t_address_payable"
      },
      {
        "astId": 11266,
        "contract": "src/RewardDistributor.sol:RewardDistributor",
        "label": "pendingOwner",
        "offset": 0,
        "slot": "1",
        "type": "t_address_payable"
      },
      {
        "astId": 11398,
        "contract": "src/RewardDistributor.sol:RewardDistributor",
        "label": "__gap",
        "offset": 0,
        "slot": "2",
        "type": "t_array(t_uint256)50_storage"
      },
      {
        "astId": 13074,
        "contract": "src/RewardDistributor.sol:RewardDistributor",
        "label": "controller",
        "offset": 0,
        "slot": "52",
        "type": "t_contract(IController)10855"
      },
      {
        "astId": 13077,
        "contract": "src/RewardDistributor.sol:RewardDistributor",
        "label": "globalDistributionSpeed",
        "offset": 0,
        "slot": "53",
        "type": "t_uint256"
      },
      {
        "astId": 13082,
        "contract": "src/RewardDistributor.sol:RewardDistributor",
        "label": "distributionSpeed",
        "offset": 0,
        "slot": "54",
        "type": "t_mapping(t_address,t_uint256)"
      },
      {
        "astId": 13087,
        "contract": "src/RewardDistributor.sol:RewardDistributor",
        "label": "distributionFactorMantissa",
        "offset": 0,
        "slot": "55",
        "type": "t_mapping(t_address,t_uint256)"
      },
      {
        "astId": 13100,
        "contract": "src/RewardDistributor.sol:RewardDistributor",
        "label": "distributionSupplyState",
        "offset": 0,
        "slot": "56",
        "type": "t_mapping(t_address,t_struct(DistributionState)13094_storage)"
      },
      {
        "astId": 13106,
        "contract": "src/RewardDistributor.sol:RewardDistributor",
        "label": "distributionBorrowState",
        "offset": 0,
        "slot": "57",
        "type": "t_mapping(t_address,t_struct(DistributionState)13094_storage)"
      },
      {
        "astId": 13113,
        "contract": "src/RewardDistributor.sol:RewardDistributor",
        "label": "distributionSupplierIndex",
        "offset": 0,
        "slot": "58",
        "type": "t_mapping(t_address,t_mapping(t_address,t_uint256))"
      },
      {
        "astId": 13120,
        "contract": "src/RewardDistributor.sol:RewardDistributor",
        "label": "distributionBorrowerIndex",
        "offset": 0,
        "slot": "59",
        "type": "t_mapping(t_address,t_mapping(t_address,t_uint256))"
      },
      {
        "astId": 13125,
        "contract": "src/RewardDistributor.sol:RewardDistributor",
        "label": "reward",
        "offset": 0,
        "slot": "60",
        "type": "t_mapping(t_address,t_uint256)"
      },
      {
        "astId": 13129,
        "contract": "src/RewardDistributor.sol:RewardDistributor",
        "label": "rewardToken",
        "offset": 0,
        "slot": "61",
        "type": "t_address"
      },
      {
        "astId": 13132,
        "contract": "src/RewardDistributor.sol:RewardDistributor",
        "label": "paused",
        "offset": 20,
        "slot": "61",
        "type": "t_bool"
      },
      {
        "astId": 13137,
        "contract": "src/RewardDistributor.sol:RewardDistributor",
        "label": "distributionSupplySpeed",
        "offset": 0,
        "slot": "62",
        "type": "t_mapping(t_address,t_uint256)"
      },
      {
        "astId": 13140,
        "contract": "src/RewardDistributor.sol:RewardDistributor",
        "label": "globalDistributionSupplySpeed",
        "offset": 0,
        "slot": "63",
        "type": "t_uint256"
      },
      {
        "astId": 13144,
        "contract": "src/RewardDistributor.sol:RewardDistributor",
        "label": "treasury",
        "offset": 0,
        "slot": "64",
        "type": "t_address"
      },
      {
        "astId": 13148,
        "contract": "src/RewardDistributor.sol:RewardDistributor",
        "label": "manager",
        "offset": 0,
        "slot": "65",
        "type": "t_contract(IRewardDistributorManager)11172"
      },
      {
        "astId": 13151,
        "contract": "src/RewardDistributor.sol:RewardDistributor",
        "label": "bountyRatio",
        "offset": 0,
        "slot": "66",
        "type": "t_uint256"
      }
    ],
    "types": {
      "t_address": {
        "encoding": "inplace",
        "label": "address",
        "numberOfBytes": "20"
      },
      "t_address_payable": {
        "encoding": "inplace",
        "label": "address payable",
        "numberOfBytes": "20"
      },
      "t_array(t_uint256)50_storage": {
        "base": "t_uint256",
        "encoding": "inplace",
        "label": "uint256[50]",
        "numberOfBytes": "1600"
      },
      "t_bool": {
        "encoding": "inplace",
        "label": "bool",
        "numberOfBytes": "1"
      },
      "t_contract(IController)10855": {
        "encoding": "inplace",
        "label": "contract IController",
        "numberOfBytes": "20"
      },
      "t_contract(IRewardDistributorManager)11172": {
        "encoding": "inplace",
        "label": "contract IRewardDistributorManager",
        "numberOfBytes": "20"
      },
      "t_mapping(t_address,t_mapping(t_address,t_uint256))": {
        "encoding": "mapping",
        "key": "t_address",
        "label": "mapping(address => mapping(address => uint256))",
        "numberOfBytes": "32",
        "value": "t_mapping(t_address,t_uint256)"
      },
      "t_mapping(t_address,t_struct(DistributionState)13094_storage)": {
        "encoding": "mapping",
        "key": "t_address",
        "label": "mapping(address => struct RewardDistributor.DistributionState)",
        "numberOfBytes": "32",
        "value": "t_struct(DistributionState)13094_storage"
      },
      "t_mapping(t_address,t_uint256)": {
        "encoding": "mapping",
        "key": "t_address",
        "label": "mapping(address => uint256)",
        "numberOfBytes": "32",
        "value": "t_uint256"
      },
      "t_struct(DistributionState)13094_storage": {
        "encoding": "inplace",
        "label": "struct RewardDistributor.DistributionState",
        "members": [
          {
            "astId": 13089,
            "contract": "src/RewardDistributor.sol:RewardDistributor",
            "label": "index",
            "offset": 0,
            "slot": "0",
            "type": "t_uint256"
          },
          {
            "astId": 13091,
            "contract": "src/RewardDistributor.sol:RewardDistributor",
            "label": "block",
            "offset": 0,
            "slot": "1",
            "type": "t_uint256"
          },
          {
            "astId": 13093,
            "contract": "src/RewardDistributor.sol:RewardDistributor",
            "label": "timestamp",
            "offset": 0,
            "slot": "2",
            "type": "t_uint256"
          }
        ],
        "numberOfBytes": "96"
      },
      "t_uint256": {
        "encoding": "inplace",
        "label": "uint256",
        "numberOfBytes": "32"
      }
    }
  }
}