{
  "address": "0xd9a06F0f687b080c4B7adADb6Fd90eb55C1b71B4",
  "abi": [
    {
      "inputs": [
        {
          "internalType": "contract IController",
          "name": "_controller",
          "type": "address"
        }
      ],
      "stateMutability": "nonpayable",
      "type": "constructor"
    },
    {
      "inputs": [],
      "name": "RewardDistributorManager__NotController",
      "type": "error"
    },
    {
      "inputs": [],
      "name": "RewardDistributorManager_addRewardDistributorInternal__InvalidRewardDistributor",
      "type": "error"
    },
    {
      "inputs": [
        {
          "internalType": "address",
          "name": "rewardDistributor",
          "type": "address"
        }
      ],
      "name": "RewardDistributorManager_addRewardDistributorInternal__RewardDistributorAlreadyExist",
      "type": "error"
    },
    {
      "inputs": [],
      "name": "RewardDistributorManager_initialize__InvalidController",
      "type": "error"
    },
    {
      "inputs": [
        {
          "internalType": "address",
          "name": "rewardDistributor",
          "type": "address"
        }
      ],
      "name": "RewardDistributorManager_removeRewardDistributorInternal__RewardDistributorDoesNotExist",
      "type": "error"
    },
    {
      "inputs": [],
      "name": "RewardDistributorManager_setEligibilityManager_InvalidEligibilityManager",
      "type": "error"
    },
    {
      "inputs": [],
      "name": "RewardDistributorManager_updateEligibleBalance__InvalidEligibility",
      "type": "error"
    },
    {
      "anonymous": false,
      "inputs": [
        {
          "indexed": true,
          "internalType": "address",
          "name": "_newRewardDistributor",
          "type": "address"
        }
      ],
      "name": "AddRewardDistributor",
      "type": "event"
    },
    {
      "anonymous": false,
      "inputs": [
        {
          "indexed": true,
          "internalType": "address",
          "name": "account",
          "type": "address"
        },
        {
          "indexed": false,
          "internalType": "bool",
          "name": "eligibility",
          "type": "bool"
        }
      ],
      "name": "EligibilityChanged",
      "type": "event"
    },
    {
      "anonymous": false,
      "inputs": [
        {
          "indexed": true,
          "internalType": "address",
          "name": "iToken",
          "type": "address"
        },
        {
          "indexed": false,
          "internalType": "int256",
          "name": "amount",
          "type": "int256"
        }
      ],
      "name": "EligibleTotalBorrowChanged",
      "type": "event"
    },
    {
      "anonymous": false,
      "inputs": [
        {
          "indexed": true,
          "internalType": "address",
          "name": "iToken",
          "type": "address"
        },
        {
          "indexed": false,
          "internalType": "int256",
          "name": "amount",
          "type": "int256"
        }
      ],
      "name": "EligibleTotalSupplyChanged",
      "type": "event"
    },
    {
      "anonymous": false,
      "inputs": [
        {
          "indexed": false,
          "internalType": "address",
          "name": "oldEligibilityManager",
          "type": "address"
        },
        {
          "indexed": false,
          "internalType": "address",
          "name": "newEligibilityManager",
          "type": "address"
        }
      ],
      "name": "NewEligibilityManager",
      "type": "event"
    },
    {
      "anonymous": false,
      "inputs": [
        {
          "indexed": true,
          "internalType": "address",
          "name": "previousOwner",
          "type": "address"
        },
        {
          "indexed": true,
          "internalType": "address",
          "name": "newOwner",
          "type": "address"
        }
      ],
      "name": "NewOwner",
      "type": "event"
    },
    {
      "anonymous": false,
      "inputs": [
        {
          "indexed": true,
          "internalType": "address",
          "name": "oldPendingOwner",
          "type": "address"
        },
        {
          "indexed": true,
          "internalType": "address",
          "name": "newPendingOwner",
          "type": "address"
        }
      ],
      "name": "NewPendingOwner",
      "type": "event"
    },
    {
      "anonymous": false,
      "inputs": [
        {
          "indexed": true,
          "internalType": "address",
          "name": "_oldRewardDistributor",
          "type": "address"
        }
      ],
      "name": "RemoveRewardDistributor",
      "type": "event"
    },
    {
      "inputs": [],
      "name": "_acceptOwner",
      "outputs": [],
      "stateMutability": "nonpayable",
      "type": "function"
    },
    {
      "inputs": [
        {
          "internalType": "address",
          "name": "",
          "type": "address"
        },
        {
          "internalType": "uint256",
          "name": "",
          "type": "uint256"
        }
      ],
      "name": "_addRecipient",
      "outputs": [],
      "stateMutability": "nonpayable",
      "type": "function"
    },
    {
      "inputs": [
        {
          "internalType": "address",
          "name": "_rewardDistributor",
          "type": "address"
        }
      ],
      "name": "_addRewardDistributor",
      "outputs": [],
      "stateMutability": "nonpayable",
      "type": "function"
    },
    {
      "inputs": [
        {
          "internalType": "address[]",
          "name": "_rewardDistributors",
          "type": "address[]"
        }
      ],
      "name": "_addRewardDistributors",
      "outputs": [],
      "stateMutability": "nonpayable",
      "type": "function"
    },
    {
      "inputs": [
        {
          "internalType": "address",
          "name": "_rewardDistributor",
          "type": "address"
        }
      ],
      "name": "_removeRewardDistributor",
      "outputs": [],
      "stateMutability": "nonpayable",
      "type": "function"
    },
    {
      "inputs": [
        {
          "internalType": "address[]",
          "name": "_rewardDistributors",
          "type": "address[]"
        }
      ],
      "name": "_removeRewardDistributors",
      "outputs": [],
      "stateMutability": "nonpayable",
      "type": "function"
    },
    {
      "inputs": [
        {
          "internalType": "contract IEligibilityManager",
          "name": "_newEligibilityManager",
          "type": "address"
        }
      ],
      "name": "_setEligibilityManager",
      "outputs": [],
      "stateMutability": "nonpayable",
      "type": "function"
    },
    {
      "inputs": [
        {
          "internalType": "address payable",
          "name": "newPendingOwner",
          "type": "address"
        }
      ],
      "name": "_setPendingOwner",
      "outputs": [],
      "stateMutability": "nonpayable",
      "type": "function"
    },
    {
      "inputs": [
        {
          "internalType": "address",
          "name": "_iToken",
          "type": "address"
        },
        {
          "internalType": "address",
          "name": "_borrower",
          "type": "address"
        },
        {
          "internalType": "uint256",
          "name": "_borrowedAmount",
          "type": "uint256"
        }
      ],
      "name": "afterBorrow",
      "outputs": [],
      "stateMutability": "nonpayable",
      "type": "function"
    },
    {
      "inputs": [
        {
          "internalType": "address",
          "name": "",
          "type": "address"
        },
        {
          "internalType": "address",
          "name": "",
          "type": "address"
        },
        {
          "internalType": "uint256",
          "name": "",
          "type": "uint256"
        }
      ],
      "name": "afterFlashloan",
      "outputs": [],
      "stateMutability": "nonpayable",
      "type": "function"
    },
    {
      "inputs": [
        {
          "internalType": "address",
          "name": "",
          "type": "address"
        },
        {
          "internalType": "address",
          "name": "",
          "type": "address"
        },
        {
          "internalType": "address",
          "name": "",
          "type": "address"
        },
        {
          "internalType": "address",
          "name": "",
          "type": "address"
        },
        {
          "internalType": "uint256",
          "name": "",
          "type": "uint256"
        },
        {
          "internalType": "uint256",
          "name": "",
          "type": "uint256"
        }
      ],
      "name": "afterLiquidateBorrow",
      "outputs": [],
      "stateMutability": "nonpayable",
      "type": "function"
    },
    {
      "inputs": [
        {
          "internalType": "address",
          "name": "_iToken",
          "type": "address"
        },
        {
          "internalType": "address",
          "name": "_minter",
          "type": "address"
        },
        {
          "internalType": "uint256",
          "name": "",
          "type": "uint256"
        },
        {
          "internalType": "uint256",
          "name": "_mintedAmount",
          "type": "uint256"
        }
      ],
      "name": "afterMint",
      "outputs": [],
      "stateMutability": "nonpayable",
      "type": "function"
    },
    {
      "inputs": [
        {
          "internalType": "address",
          "name": "_iToken",
          "type": "address"
        },
        {
          "internalType": "address",
          "name": "_redeemer",
          "type": "address"
        },
        {
          "internalType": "uint256",
          "name": "_redeemAmount",
          "type": "uint256"
        },
        {
          "internalType": "uint256",
          "name": "",
          "type": "uint256"
        }
      ],
      "name": "afterRedeem",
      "outputs": [],
      "stateMutability": "nonpayable",
      "type": "function"
    },
    {
      "inputs": [
        {
          "internalType": "address",
          "name": "_iToken",
          "type": "address"
        },
        {
          "internalType": "address",
          "name": "",
          "type": "address"
        },
        {
          "internalType": "address",
          "name": "_borrower",
          "type": "address"
        },
        {
          "internalType": "uint256",
          "name": "_repayAmount",
          "type": "uint256"
        }
      ],
      "name": "afterRepayBorrow",
      "outputs": [],
      "stateMutability": "nonpayable",
      "type": "function"
    },
    {
      "inputs": [
        {
          "internalType": "address",
          "name": "_iTokenCollateral",
          "type": "address"
        },
        {
          "internalType": "address",
          "name": "",
          "type": "address"
        },
        {
          "internalType": "address",
          "name": "_liquidator",
          "type": "address"
        },
        {
          "internalType": "address",
          "name": "_borrower",
          "type": "address"
        },
        {
          "internalType": "uint256",
          "name": "_seizedAmount",
          "type": "uint256"
        }
      ],
      "name": "afterSeize",
      "outputs": [],
      "stateMutability": "nonpayable",
      "type": "function"
    },
    {
      "inputs": [
        {
          "internalType": "address",
          "name": "_iToken",
          "type": "address"
        },
        {
          "internalType": "address",
          "name": "_from",
          "type": "address"
        },
        {
          "internalType": "address",
          "name": "_to",
          "type": "address"
        },
        {
          "internalType": "uint256",
          "name": "_amount",
          "type": "uint256"
        }
      ],
      "name": "afterTransfer",
      "outputs": [],
      "stateMutability": "nonpayable",
      "type": "function"
    },
    {
      "inputs": [
        {
          "internalType": "address[]",
          "name": "_holders",
          "type": "address[]"
        }
      ],
      "name": "claimAllReward",
      "outputs": [],
      "stateMutability": "nonpayable",
      "type": "function"
    },
    {
      "inputs": [
        {
          "internalType": "address[]",
          "name": "_accounts",
          "type": "address[]"
        }
      ],
      "name": "claimBounty",
      "outputs": [],
      "stateMutability": "nonpayable",
      "type": "function"
    },
    {
      "inputs": [
        {
          "internalType": "address[]",
          "name": "_holders",
          "type": "address[]"
        },
        {
          "internalType": "address[]",
          "name": "_iTokens",
          "type": "address[]"
        }
      ],
      "name": "claimReward",
      "outputs": [],
      "stateMutability": "nonpayable",
      "type": "function"
    },
    {
      "inputs": [
        {
          "internalType": "address[]",
          "name": "_holders",
          "type": "address[]"
        },
        {
          "internalType": "address[]",
          "name": "_suppliediTokens",
          "type": "address[]"
        },
        {
          "internalType": "address[]",
          "name": "_borrowediTokens",
          "type": "address[]"
        }
      ],
      "name": "claimRewards",
      "outputs": [],
      "stateMutability": "nonpayable",
      "type": "function"
    },
    {
      "inputs": [],
      "name": "controller",
      "outputs": [
        {
          "internalType": "contract IController",
          "name": "",
          "type": "address"
        }
      ],
      "stateMutability": "view",
      "type": "function"
    },
    {
      "inputs": [],
      "name": "eligibilityManager",
      "outputs": [
        {
          "internalType": "contract IEligibilityManager",
          "name": "",
          "type": "address"
        }
      ],
      "stateMutability": "view",
      "type": "function"
    },
    {
      "inputs": [
        {
          "internalType": "address",
          "name": "_iToken",
          "type": "address"
        },
        {
          "internalType": "address",
          "name": "_account",
          "type": "address"
        }
      ],
      "name": "eligibleBorrow",
      "outputs": [
        {
          "internalType": "uint256",
          "name": "_eligibleBorrow",
          "type": "uint256"
        }
      ],
      "stateMutability": "view",
      "type": "function"
    },
    {
      "inputs": [
        {
          "internalType": "address",
          "name": "_iToken",
          "type": "address"
        },
        {
          "internalType": "address",
          "name": "_account",
          "type": "address"
        }
      ],
      "name": "eligibleSupply",
      "outputs": [
        {
          "internalType": "uint256",
          "name": "_eligibleSupply",
          "type": "uint256"
        }
      ],
      "stateMutability": "view",
      "type": "function"
    },
    {
      "inputs": [
        {
          "internalType": "address",
          "name": "",
          "type": "address"
        }
      ],
      "name": "eligibleTotalBorrow",
      "outputs": [
        {
          "internalType": "uint256",
          "name": "",
          "type": "uint256"
        }
      ],
      "stateMutability": "view",
      "type": "function"
    },
    {
      "inputs": [
        {
          "internalType": "address",
          "name": "",
          "type": "address"
        }
      ],
      "name": "eligibleTotalSupply",
      "outputs": [
        {
          "internalType": "uint256",
          "name": "",
          "type": "uint256"
        }
      ],
      "stateMutability": "view",
      "type": "function"
    },
    {
      "inputs": [],
      "name": "getRewardDistributors",
      "outputs": [
        {
          "internalType": "address[]",
          "name": "",
          "type": "address[]"
        }
      ],
      "stateMutability": "view",
      "type": "function"
    },
    {
      "inputs": [],
      "name": "getRewardDistributorsLength",
      "outputs": [
        {
          "internalType": "uint256",
          "name": "",
          "type": "uint256"
        }
      ],
      "stateMutability": "view",
      "type": "function"
    },
    {
      "inputs": [
        {
          "internalType": "contract IController",
          "name": "_controller",
          "type": "address"
        }
      ],
      "name": "initialize",
      "outputs": [],
      "stateMutability": "nonpayable",
      "type": "function"
    },
    {
      "inputs": [
        {
          "internalType": "address",
          "name": "",
          "type": "address"
        }
      ],
      "name": "isEligible",
      "outputs": [
        {
          "internalType": "bool",
          "name": "",
          "type": "bool"
        }
      ],
      "stateMutability": "view",
      "type": "function"
    },
    {
      "inputs": [],
      "name": "isRewardDistributorManager",
      "outputs": [
        {
          "internalType": "bool",
          "name": "",
          "type": "bool"
        }
      ],
      "stateMutability": "pure",
      "type": "function"
    },
    {
      "inputs": [],
      "name": "owner",
      "outputs": [
        {
          "internalType": "address payable",
          "name": "",
          "type": "address"
        }
      ],
      "stateMutability": "view",
      "type": "function"
    },
    {
      "inputs": [],
      "name": "pendingOwner",
      "outputs": [
        {
          "internalType": "address payable",
          "name": "",
          "type": "address"
        }
      ],
      "stateMutability": "view",
      "type": "function"
    },
    {
      "inputs": [
        {
          "internalType": "address",
          "name": "_iToken",
          "type": "address"
        },
        {
          "internalType": "bool",
          "name": "_isBorrow",
          "type": "bool"
        }
      ],
      "name": "updateDistributionState",
      "outputs": [],
      "stateMutability": "nonpayable",
      "type": "function"
    },
    {
      "inputs": [
        {
          "internalType": "address",
          "name": "_account",
          "type": "address"
        }
      ],
      "name": "updateEligibleBalance",
      "outputs": [],
      "stateMutability": "nonpayable",
      "type": "function"
    },
    {
      "inputs": [
        {
          "internalType": "address[]",
          "name": "_accounts",
          "type": "address[]"
        }
      ],
      "name": "updateEligibleBalances",
      "outputs": [],
      "stateMutability": "nonpayable",
      "type": "function"
    },
    {
      "inputs": [
        {
          "internalType": "address",
          "name": "_iToken",
          "type": "address"
        },
        {
          "internalType": "address",
          "name": "_account",
          "type": "address"
        },
        {
          "internalType": "bool",
          "name": "_isBorrow",
          "type": "bool"
        }
      ],
      "name": "updateReward",
      "outputs": [],
      "stateMutability": "nonpayable",
      "type": "function"
    }
  ],
  "transactionHash": "0x378664782b85c23f3b3480cff73f4b78ae3d9fdb541d8c3cbe1854ff3c7fa398",
  "args": [
    "0x1cD0b4aFA81568F967c769d48607796A6A2E8B71"
  ],
  "numDeployments": 1,
  "solcInputHash": "c9c05e969f4365cae4f6ddfababd0d12",
  "bytecode": "0x60806040523480156200001157600080fd5b5060405162002c7838038062002c788339810160408190526200003491620001b9565b6200003f8162000046565b506200020f565b60005460ff1615620000b55760405162461bcd60e51b815260206004820152602e60248201527f496e697469616c697a61626c653a20636f6e747261637420697320616c72656160448201526d191e481a5b9a5d1a585b1a5e995960921b606482015260840160405180910390fd5b620000bf62000171565b806001600160a01b0316634e1647fb6040518163ffffffff1660e01b8152600401602060405180830381865afa158015620000fe573d6000803e3d6000fd5b505050506040513d601f19601f82011682018060405250810190620001249190620001eb565b6200014257604051638da904cb60e01b815260040160405180910390fd5b603680546001600160a01b0319166001600160a01b03929092169190911790556000805460ff19166001179055565b60008054610100600160a81b0319163361010081029190911782556040519091907f70aea8d848e8a90fb7661b227dc522eb6395c3dac71b63cb59edd5c9899b2364908290a3565b600060208284031215620001cc57600080fd5b81516001600160a01b0381168114620001e457600080fd5b9392505050565b600060208284031215620001fe57600080fd5b81518015158114620001e457600080fd5b612a59806200021f6000396000f3fe608060405234801561001057600080fd5b50600436106102275760003560e01c80638ffe4f2511610130578063caece2fe116100b8578063efced3851161007c578063efced385146104e3578063f079420a146104f6578063f32b973e14610509578063f77c47911461051c578063fc4d33f91461052f57600080fd5b8063caece2fe14610490578063de65f41b146104a3578063e30c3978146104b6578063e33af48a146104c9578063eb5bf95d146104dc57600080fd5b8063a82e84e9116100ff578063a82e84e914610431578063b2a6df7414610444578063bdfa0c9914610457578063c4d66de81461046a578063ca498ad61461047d57600080fd5b80638ffe4f25146103e5578063990f7fbd146103f85780639c010dcb1461040b578063a2ddeb851461041e57600080fd5b80635f7bc006116101b35780636e96dfd7116101825780636e96dfd714610374578063772fb4f6146103875780637829db011461039a5780637d3572fd146103ba5780638da5cb5b146103cd57600080fd5b80635f7bc0061461030657806361252fd1146103195780636471ffa31461032e57806366e305fd1461034157600080fd5b8063263e0b9c116101fa578063263e0b9c146102a7578063337fbfa8146102ba57806342e77284146102cd5780635658fec3146102e057806359c18a31146102f357600080fd5b8063053f87771461022c5780630d75a31a146102475780630d7f67a21461026757806314c77faa1461027c575b600080fd5b610234610537565b6040519081526020015b60405180910390f35b61023461025536600461219c565b60396020526000908152604090205481565b61027a6102753660046121b9565b610548565b005b60375461028f906001600160a01b031681565b6040516001600160a01b03909116815260200161023e565b61027a6102b536600461219c565b610687565b61027a6102c836600461219c565b610710565b61027a6102db3660046122fc565b610751565b61027a6102ee366004612339565b6107eb565b61027a610301366004612365565b610816565b61027a6103143660046123da565b61088e565b6103216108c1565b60405161023e919061248c565b61023461033c36600461249f565b6108cd565b61036461034f36600461219c565b60386020526000908152604090205460ff1681565b604051901515815260200161023e565b61027a61038236600461219c565b610984565b61023461039536600461249f565b610ab1565b6102346103a836600461219c565b603a6020526000908152604090205481565b61027a6103c83660046124e6565b610b43565b60005461028f9061010090046001600160a01b031681565b61027a6103f3366004612365565b610bdf565b61027a61040636600461219c565b610c51565b61027a610419366004612365565b610d8a565b61027a61042c366004612531565b610e4c565b61027a61043f366004612577565b610f07565b61027a61045236600461219c565b610fa1565b61027a6104653660046125ff565b610fd9565b61027a61047836600461219c565b611076565b61027a61048b366004612663565b611196565b61027a61049e3660046126a4565b6112a4565b61027a6104b1366004612531565b611338565b60015461028f906001600160a01b031681565b61027a6104d73660046126d2565b6113d3565b6001610364565b61027a6104f1366004612663565b6114d2565b61027a6105043660046126d2565b6114fd565b61027a6105173660046122fc565b61162c565b60365461028f906001600160a01b031681565b61027a6116e4565b600061054360346117fa565b905090565b6036546001600160a01b0316331461057357604051633bd4919b60e11b815260040160405180910390fd5b6001600160a01b03821660009081526038602052604090205460ff16156105fe576001600160a01b038516600090815260396020526040812080548392906105bc908490612739565b90915550506001600160a01b0385166000805160206129e48339815191526105e383611804565b6105ec90612750565b60405190815260200160405180910390a25b6001600160a01b03831660009081526038602052604090205460ff1615610680576001600160a01b0385166000908152603960205260408120805483929061064790849061276d565b90915550506001600160a01b0385166000805160206129e483398151915261066e83611804565b60405190815260200160405180910390a25b5050505050565b61070d81603660009054906101000a90046001600160a01b03166001600160a01b03166360a8a9316040518163ffffffff1660e01b8152600401600060405180830381865afa1580156106de573d6000803e3d6000fd5b505050506040513d6000823e601f3d908101601f191682016040526107069190810190612785565b6000611872565b50565b60005461010090046001600160a01b031633146107485760405162461bcd60e51b815260040161073f9061281f565b60405180910390fd5b61070d81611d2c565b600061075d60346117fa565b905060005b818110156107dd57610775603482611d97565b6001600160a01b03166342e77284846040518263ffffffff1660e01b81526004016107a0919061248c565b600060405180830381600087803b1580156107ba57600080fd5b505af11580156107ce573d6000803e3d6000fd5b50505050806001019050610762565b506107e78261162c565b5050565b6036546001600160a01b031633146107e757604051633bd4919b60e11b815260040160405180910390fd5b60005461010090046001600160a01b031633146108455760405162461bcd60e51b815260040161073f9061281f565b8060005b818110156108885761088084848381811061086657610866612861565b905060200201602081019061087b919061219c565b611da3565b600101610849565b50505050565b6036546001600160a01b031633146108b957604051633bd4919b60e11b815260040160405180910390fd5b505050505050565b60606105436034611e8d565b6001600160a01b03811660009081526038602052604081205460ff161561097e576040516306fa66c360e31b81526001600160a01b03838116600483015260009182918616906337d33618906024016040805180830381865afa158015610938573d6000803e3d6000fd5b505050506040513d601f19601f8201168201806040525081019061095c9190612877565b915091506000811161096f576000610979565b6109798282611e9a565b925050505b92915050565b60005461010090046001600160a01b031633146109b35760405162461bcd60e51b815260040161073f9061281f565b6001600160a01b038116158015906109d957506001546001600160a01b03828116911614155b610a5f5760405162461bcd60e51b815260206004820152604b60248201527f5f73657450656e64696e674f776e65723a204e6577206f77656e722063616e2060448201527f6e6f74206265207a65726f206164647265737320616e64206f776e657220686160648201526a73206265656e207365742160a81b608482015260a40161073f565b600180546001600160a01b038381166001600160a01b0319831681179093556040519116919082907fb3d55174552271a4f1aaf36b72f50381e892171636b3fb5447fe00e995e7a37b90600090a35050565b6001600160a01b03811660009081526038602052604081205460ff161561097e576040516370a0823160e01b81526001600160a01b0383811660048301528416906370a0823190602401602060405180830381865afa158015610b18573d6000803e3d6000fd5b505050506040513d601f19601f82011682018060405250810190610b3c919061289b565b9392505050565b6000610b4f60346117fa565b905060005b8181101561068057610b67603482611d97565b604051637d3572fd60e01b81526001600160a01b038781166004830152868116602483015285151560448301529190911690637d3572fd90606401600060405180830381600087803b158015610bbc57600080fd5b505af1158015610bd0573d6000803e3d6000fd5b50505050806001019050610b54565b60005461010090046001600160a01b03163314610c0e5760405162461bcd60e51b815260040161073f9061281f565b8060005b8181101561088857610c49848483818110610c2f57610c2f612861565b9050602002016020810190610c44919061219c565b611d2c565b600101610c12565b60005461010090046001600160a01b03163314610c805760405162461bcd60e51b815260040161073f9061281f565b60375460408051634b52d08760e11b815290516001600160a01b03928316928416916396a5a10e9160048083019260209291908290030181865afa158015610ccc573d6000803e3d6000fd5b505050506040513d601f19601f82011682018060405250810190610cf091906128b4565b1580610d0d5750806001600160a01b0316826001600160a01b0316145b15610d2b576040516369f6977760e11b815260040160405180910390fd5b603780546001600160a01b0319166001600160a01b0384811691821790925560408051928416835260208301919091527fdd1b73e02786644d6e9994c9d513f1058320c4ff857e1a76ded4c77f83ab3ea9910160405180910390a15050565b603654604080516360a8a93160e01b815290516000926001600160a01b0316916360a8a93191600480830192869291908290030181865afa158015610dd3573d6000803e3d6000fd5b505050506040513d6000823e601f3d908101601f19168201604052610dfb9190810190612785565b90508160005b8181101561068057610e3a858583818110610e1e57610e1e612861565b9050602002016020810190610e33919061219c565b8433611872565b80610e44816128d1565b915050610e01565b6036546001600160a01b03163314610e7757604051633bd4919b60e11b815260040160405180910390fd5b6001600160a01b03831660009081526038602052604090205460ff1615610888576001600160a01b03841660009081526039602052604081208054849290610ec0908490612739565b90915550506001600160a01b0384166000805160206129e4833981519152610ee784611804565b610ef090612750565b60405190815260200160405180910390a250505050565b6000610f1360346117fa565b905060005b81811015610f9757610f2b603482611d97565b6001600160a01b031663a82e84e98686866040518463ffffffff1660e01b8152600401610f5a939291906128ec565b600060405180830381600087803b158015610f7457600080fd5b505af1158015610f88573d6000803e3d6000fd5b50505050806001019050610f18565b506108888461162c565b60005461010090046001600160a01b03163314610fd05760405162461bcd60e51b815260040161073f9061281f565b61070d81611da3565b6000610fe560346117fa565b905060005b8181101561106757610ffd603482611d97565b6001600160a01b031663bdfa0c9985856040518363ffffffff1660e01b815260040161102a92919061292f565b600060405180830381600087803b15801561104457600080fd5b505af1158015611058573d6000803e3d6000fd5b50505050806001019050610fea565b506110718361162c565b505050565b60005460ff16156110e05760405162461bcd60e51b815260206004820152602e60248201527f496e697469616c697a61626c653a20636f6e747261637420697320616c72656160448201526d191e481a5b9a5d1a585b1a5e995960921b606482015260840161073f565b6110e8611eb9565b806001600160a01b0316634e1647fb6040518163ffffffff1660e01b8152600401602060405180830381865afa158015611126573d6000803e3d6000fd5b505050506040513d601f19601f8201168201806040525081019061114a91906128b4565b61116757604051638da904cb60e01b815260040160405180910390fd5b603680546001600160a01b0319166001600160a01b03929092169190911790556000805460ff19166001179055565b6036546001600160a01b031633146111c157604051633bd4919b60e11b815260040160405180910390fd5b6001600160a01b03821660009081526038602052604090205460ff1615611071576000611250846001600160a01b031663aa5af0fd6040518163ffffffff1660e01b8152600401602060405180830381865afa158015611225573d6000803e3d6000fd5b505050506040513d601f19601f82011682018060405250810190611249919061289b565b8390611e9a565b6001600160a01b0385166000908152603a602052604081208054929350839290919061127d90849061276d565b90915550506001600160a01b038416600080516020612a04833981519152610ef083611804565b60006112b060346117fa565b905060005b81811015610888576112c8603482611d97565b604051636576717f60e11b81526001600160a01b0386811660048301528515156024830152919091169063caece2fe90604401600060405180830381600087803b15801561131557600080fd5b505af1158015611329573d6000803e3d6000fd5b505050508060010190506112b5565b6036546001600160a01b0316331461136357604051633bd4919b60e11b815260040160405180910390fd5b6001600160a01b03831660009081526038602052604090205460ff1615610888576001600160a01b038416600090815260396020526040812080548392906113ac90849061276d565b90915550506001600160a01b0384166000805160206129e4833981519152610ef083611804565b6036546001600160a01b031633146113fe57604051633bd4919b60e11b815260040160405180910390fd5b6001600160a01b03831660009081526038602052604090205460ff1615611489576001600160a01b03841660009081526039602052604081208054839290611447908490612739565b90915550506001600160a01b0384166000805160206129e483398151915261146e83611804565b61147790612750565b60405190815260200160405180910390a25b6001600160a01b03821660009081526038602052604090205460ff1615610888576001600160a01b038416600090815260396020526040812080548392906113ac90849061276d565b6036546001600160a01b0316331461107157604051633bd4919b60e11b815260040160405180910390fd5b6036546001600160a01b0316331461152857604051633bd4919b60e11b815260040160405180910390fd5b6001600160a01b03821660009081526038602052604090205460ff161561088857600061158c856001600160a01b031663aa5af0fd6040518163ffffffff1660e01b8152600401602060405180830381865afa158015611225573d6000803e3d6000fd5b6001600160a01b0386166000908152603a60205260409020549091508110156115e2576001600160a01b0385166000908152603a6020526040812080548392906115d7908490612739565b909155506116019050565b506001600160a01b0384166000908152603a6020526040812080549190555b846001600160a01b0316600080516020612a0483398151915261162383611804565b61066e90612750565b603654604080516360a8a93160e01b815290516000926001600160a01b0316916360a8a93191600480830192869291908290030181865afa158015611675573d6000803e3d6000fd5b505050506040513d6000823e601f3d908101601f1916820160405261169d9190810190612785565b825190915060005b81811015610888576116d28482815181106116c2576116c2612861565b6020026020010151846000611872565b806116dc816128d1565b9150506116a5565b6001546001600160a01b0316331461174c5760405162461bcd60e51b815260206004820152602560248201527f5f6163636570744f776e65723a204f6e6c7920666f722070656e64696e67206f604482015264776e65722160d81b606482015260840161073f565b60008054600180546001600160a01b03818116610100818102610100600160a81b03198716178088556001600160a01b031990941690945560405194849004821695909493909204169184917f70aea8d848e8a90fb7661b227dc522eb6395c3dac71b63cb59edd5c9899b236491a36001546040516001600160a01b03918216918316907fb3d55174552271a4f1aaf36b72f50381e892171636b3fb5447fe00e995e7a37b90600090a35050565b600061097e825490565b60006001600160ff1b0382111561186e5760405162461bcd60e51b815260206004820152602860248201527f53616665436173743a2076616c756520646f65736e27742066697420696e2061604482015267371034b73a191a9b60c11b606482015260840161073f565b5090565b6037546040516366e305fd60e01b81526001600160a01b03858116600483015260009283929116906366e305fd9060240160408051808303816000875af11580156118c1573d6000803e3d6000fd5b505050506040513d601f19601f820116820180604052508101906118e5919061295d565b91509150806119075760405163f289751b60e01b815260040160405180910390fd5b6001600160a01b03851660009081526038602052604090205460ff1615158215151415611935575050505050565b835160005b81811015611cab57600086828151811061195657611956612861565b60209081029190910101516040516370a0823160e01b81526001600160a01b038a811660048301529192506000918316906370a0823190602401602060405180830381865afa1580156119ad573d6000803e3d6000fd5b505050506040513d601f19601f820116820180604052508101906119d1919061289b565b6040516306fa66c360e31b81526001600160a01b038b811660048301529192506000918291908516906337d33618906024016040805180830381865afa158015611a1f573d6000803e3d6000fd5b505050506040513d601f19601f82011682018060405250810190611a439190612877565b915091506000808211611a57576000611a61565b611a618383611e9a565b90508315611a8057611a748560006112a4565b611a80858d6000610b43565b8015611a9d57611a918560016112a4565b611a9d858d6001610b43565b8815611b76578315611b0a576001600160a01b03851660009081526039602052604081208054869290611ad190849061276d565b90915550506001600160a01b0385166000805160206129e4833981519152611af886611804565b60405190815260200160405180910390a25b8015611b71576001600160a01b0385166000908152603a602052604081208054839290611b3890849061276d565b90915550506001600160a01b038516600080516020612a04833981519152611b5f83611804565b60405190815260200160405180910390a25b611c9b565b8315611be6576001600160a01b03851660009081526039602052604081208054869290611ba4908490612739565b90915550506001600160a01b0385166000805160206129e4833981519152611bcb86611804565b611bd490612750565b60405190815260200160405180910390a25b8015611c9b576001600160a01b0385166000908152603a6020526040902054811015611c3f576001600160a01b0385166000908152603a602052604081208054839290611c34908490612739565b90915550611c5e9050565b506001600160a01b0384166000908152603a6020526040812080549190555b846001600160a01b0316600080516020612a04833981519152611c8083611804565b611c8990612750565b60405190815260200160405180910390a25b856001019550505050505061193a565b506001600160a01b038616600081815260386020908152604091829020805460ff191687151590811790915591519182527f6ae14d48df6afe3cad37dc9d491e4040245b769277746a4fbfe211807db71568910160405180910390a282158015611d1d57506001600160a01b03841615155b156108b9576108b98685611f01565b611d37603482611f95565b15611d73576040516001600160a01b038216907f202daff40f5262ad5e95940c6c7a62bc0117d839570a20c66268dc0983ef614390600090a250565b604051632c24396160e21b81526001600160a01b038216600482015260240161073f565b6000610b3c8383611faa565b806001600160a01b031663ff10302a6040518163ffffffff1660e01b8152600401602060405180830381865afa158015611de1573d6000803e3d6000fd5b505050506040513d601f19601f82011682018060405250810190611e0591906128b4565b611e2257604051633afc261960e21b815260040160405180910390fd5b611e2d603482611fd4565b15611e69576040516001600160a01b038216907fafd92645c06c0f746b45815ad30af48dfbac17647e860d7be5e8bcaded9498a990600090a250565b6040516372dddcf760e01b81526001600160a01b038216600482015260240161073f565b60606000610b3c83611fe9565b600081611eaf670de0b6b3a76400008561298c565b610b3c91906129ab565b60008054610100600160a81b0319163361010081029190911782556040519091907f70aea8d848e8a90fb7661b227dc522eb6395c3dac71b63cb59edd5c9899b2364908290a3565b6000611f0d60346117fa565b905060005b8181101561088857611f25603482611d97565b60405163233ac4f560e21b81526001600160a01b03868116600483015285811660248301529190911690638ceb13d490604401600060405180830381600087803b158015611f7257600080fd5b505af1158015611f86573d6000803e3d6000fd5b50505050806001019050611f12565b6000610b3c836001600160a01b038416612045565b6000826000018281548110611fc157611fc1612861565b9060005260206000200154905092915050565b6000610b3c836001600160a01b038416612138565b60608160000180548060200260200160405190810160405280929190818152602001828054801561203957602002820191906000526020600020905b815481526020019060010190808311612025575b50505050509050919050565b6000818152600183016020526040812054801561212e576000612069600183612739565b855490915060009061207d90600190612739565b90508181146120e257600086600001828154811061209d5761209d612861565b90600052602060002001549050808760000184815481106120c0576120c0612861565b6000918252602080832090910192909255918252600188019052604090208390555b85548690806120f3576120f36129cd565b60019003818190600052602060002001600090559055856001016000868152602001908152602001600020600090556001935050505061097e565b600091505061097e565b600081815260018301602052604081205461217f5750815460018181018455600084815260208082209093018490558454848252828601909352604090209190915561097e565b50600061097e565b6001600160a01b038116811461070d57600080fd5b6000602082840312156121ae57600080fd5b8135610b3c81612187565b600080600080600060a086880312156121d157600080fd5b85356121dc81612187565b945060208601356121ec81612187565b935060408601356121fc81612187565b9250606086013561220c81612187565b949793965091946080013592915050565b634e487b7160e01b600052604160045260246000fd5b604051601f8201601f1916810167ffffffffffffffff8111828210171561225c5761225c61221d565b604052919050565b600067ffffffffffffffff82111561227e5761227e61221d565b5060051b60200190565b600082601f83011261229957600080fd5b813560206122ae6122a983612264565b612233565b82815260059290921b840181019181810190868411156122cd57600080fd5b8286015b848110156122f15780356122e481612187565b83529183019183016122d1565b509695505050505050565b60006020828403121561230e57600080fd5b813567ffffffffffffffff81111561232557600080fd5b61233184828501612288565b949350505050565b6000806040838503121561234c57600080fd5b823561235781612187565b946020939093013593505050565b6000806020838503121561237857600080fd5b823567ffffffffffffffff8082111561239057600080fd5b818501915085601f8301126123a457600080fd5b8135818111156123b357600080fd5b8660208260051b85010111156123c857600080fd5b60209290920196919550909350505050565b60008060008060008060c087890312156123f357600080fd5b86356123fe81612187565b9550602087013561240e81612187565b9450604087013561241e81612187565b9350606087013561242e81612187565b9598949750929560808101359460a0909101359350915050565b600081518084526020808501945080840160005b838110156124815781516001600160a01b03168752958201959082019060010161245c565b509495945050505050565b602081526000610b3c6020830184612448565b600080604083850312156124b257600080fd5b82356124bd81612187565b915060208301356124cd81612187565b809150509250929050565b801515811461070d57600080fd5b6000806000606084860312156124fb57600080fd5b833561250681612187565b9250602084013561251681612187565b91506040840135612526816124d8565b809150509250925092565b6000806000806080858703121561254757600080fd5b843561255281612187565b9350602085013561256281612187565b93969395505050506040820135916060013590565b60008060006060848603121561258c57600080fd5b833567ffffffffffffffff808211156125a457600080fd5b6125b087838801612288565b945060208601359150808211156125c657600080fd5b6125d287838801612288565b935060408601359150808211156125e857600080fd5b506125f586828701612288565b9150509250925092565b6000806040838503121561261257600080fd5b823567ffffffffffffffff8082111561262a57600080fd5b61263686838701612288565b9350602085013591508082111561264c57600080fd5b5061265985828601612288565b9150509250929050565b60008060006060848603121561267857600080fd5b833561268381612187565b9250602084013561269381612187565b929592945050506040919091013590565b600080604083850312156126b757600080fd5b82356126c281612187565b915060208301356124cd816124d8565b600080600080608085870312156126e857600080fd5b84356126f381612187565b9350602085013561270381612187565b9250604085013561271381612187565b9396929550929360600135925050565b634e487b7160e01b600052601160045260246000fd5b60008282101561274b5761274b612723565b500390565b6000600160ff1b82141561276657612766612723565b5060000390565b6000821982111561278057612780612723565b500190565b6000602080838503121561279857600080fd5b825167ffffffffffffffff8111156127af57600080fd5b8301601f810185136127c057600080fd5b80516127ce6122a982612264565b81815260059190911b820183019083810190878311156127ed57600080fd5b928401925b8284101561281457835161280581612187565b825292840192908401906127f2565b979650505050505050565b60208082526022908201527f6f6e6c794f776e65723a2063616c6c6572206973206e6f7420746865206f776e60408201526132b960f11b606082015260800190565b634e487b7160e01b600052603260045260246000fd5b6000806040838503121561288a57600080fd5b505080516020909101519092909150565b6000602082840312156128ad57600080fd5b5051919050565b6000602082840312156128c657600080fd5b8151610b3c816124d8565b60006000198214156128e5576128e5612723565b5060010190565b6060815260006128ff6060830186612448565b82810360208401526129118186612448565b905082810360408401526129258185612448565b9695505050505050565b6040815260006129426040830185612448565b82810360208401526129548185612448565b95945050505050565b6000806040838503121561297057600080fd5b825161297b816124d8565b60208401519092506124cd816124d8565b60008160001904831182151516156129a6576129a6612723565b500290565b6000826129c857634e487b7160e01b600052601260045260246000fd5b500490565b634e487b7160e01b600052603160045260246000fdfecd176b67ded217ac36a5e1095012e7ce0d043ca282fa84939737c6c8cada36fd7ffb984b198d913a612f0c4290e127a301b6a5c36b5d6a70c19e26cdd567bec7a26469706673582212203d81e12e64a7badbee2690e260e6fe7ad34fb3c634abe2bec3e09a328af9db3164736f6c634300080a0033",
  "devdoc": {
    "kind": "dev",
    "methods": {
      "_acceptOwner()": {
        "details": "Accepts the admin rights, but only for pendingOwenr."
      },
      "_setEligibilityManager(address)": {
        "details": "Admin function, only owner can call this",
        "params": {
          "_newEligibilityManager": "the address of treasury"
        }
      },
      "_setPendingOwner(address)": {
        "details": "Transfer contract control to a new owner. The newPendingOwner must call `_acceptOwner` to finish the transfer.",
        "params": {
          "newPendingOwner": "New pending owner."
        }
      },
      "afterBorrow(address,address,uint256)": {
        "params": {
          "_borrowedAmount": "The amount of underlying being borrowed",
          "_borrower": "The account which borrowed iToken",
          "_iToken": "The iToken being borrewd"
        }
      },
      "afterMint(address,address,uint256,uint256)": {
        "params": {
          "_iToken": "The iToken being minted",
          "_mintedAmount": "The amount of iToken being minted",
          "_minter": "The account which would get the minted tokens"
        }
      },
      "afterRedeem(address,address,uint256,uint256)": {
        "params": {
          "_iToken": "The iToken being redeemed",
          "_redeemAmount": "The amount of iToken being redeemed",
          "_redeemer": "The account which redeemed iToken"
        }
      },
      "afterRepayBorrow(address,address,address,uint256)": {
        "params": {
          "_borrower": "The account which has borrowed",
          "_iToken": "The iToken being repaid #param _payer The account which would repay",
          "_repayAmount": "The amount of underlying being repaied"
        }
      },
      "afterSeize(address,address,address,address,uint256)": {
        "params": {
          "_borrower": "The account which has borrowed",
          "_iTokenCollateral": "The collateral iToken to be seized #param _iTokenBorrowed The iToken was borrowed",
          "_liquidator": "The account which has repaid and seized",
          "_seizedAmount": "The amount of collateral being seized"
        }
      },
      "afterTransfer(address,address,address,uint256)": {
        "params": {
          "_amount": "The amount was transfered",
          "_from": "The account was transfer from",
          "_iToken": "The iToken was transfered",
          "_to": "The account was transfer to"
        }
      },
      "claimAllReward(address[])": {
        "params": {
          "_holders": "The account to claim for"
        }
      },
      "claimRewards(address[],address[],address[])": {
        "params": {
          "_borrowediTokens": "The _borrowediTokens to claim from",
          "_holders": "The account to claim for",
          "_suppliediTokens": "The _suppliediTokens to claim from"
        }
      }
    },
    "version": 1
  },
  "userdoc": {
    "events": {
      "EligibilityChanged(address,bool)": {
        "notice": "Emitted Eligibility is changed"
      },
      "EligibleTotalBorrowChanged(address,int256)": {
        "notice": "Emitted Eligible Total Borrow changed"
      },
      "EligibleTotalSupplyChanged(address,int256)": {
        "notice": "Emitted Eligible Total Supply changed"
      },
      "NewEligibilityManager(address,address)": {
        "notice": "Emitted Eligibility Manager address is changed by admin"
      }
    },
    "kind": "user",
    "methods": {
      "_setEligibilityManager(address)": {
        "notice": "set new eligibility manager address"
      },
      "_setPendingOwner(address)": {
        "notice": "Base on the inputing parameter `newPendingOwner` to check the exact error reason."
      },
      "afterBorrow(address,address,uint256)": {
        "notice": "Hook function after iToken `borrow()` Will `revert()` if any operation fails"
      },
      "afterFlashloan(address,address,uint256)": {
        "notice": "Hook function after iToken `flashloan()` Will `revert()` if any operation fails #param _iToken The iToken was flashloaned #param _to The account flashloan transfer to #param _amount  The amount was flashloaned"
      },
      "afterLiquidateBorrow(address,address,address,address,uint256,uint256)": {
        "notice": "Hook function after iToken `liquidateBorrow()` Will `revert()` if any operation fails #param _iTokenBorrowed The iToken was borrowed #param _iTokenCollateral The collateral iToken to be seized #param _liquidator The account which would repay and seize #param _borrower The account which has borrowed #param _repaidAmount  The amount of underlying being repaied #param _seizedAmount  The amount of collateral being seized"
      },
      "afterMint(address,address,uint256,uint256)": {
        "notice": "Hook function after iToken `mint()` Will `revert()` if any operation fails"
      },
      "afterRedeem(address,address,uint256,uint256)": {
        "notice": "Hook function after iToken `redeem()` Will `revert()` if any operation fails"
      },
      "afterRepayBorrow(address,address,address,uint256)": {
        "notice": "Hook function after iToken `repayBorrow()` Will `revert()` if any operation fails"
      },
      "afterSeize(address,address,address,address,uint256)": {
        "notice": "Hook function after iToken `seize()` Will `revert()` if any operation fails"
      },
      "afterTransfer(address,address,address,uint256)": {
        "notice": "Hook function after iToken `transfer()` Will `revert()` if any operation fails"
      },
      "claimAllReward(address[])": {
        "notice": "Claim reward accrued in all iTokens by the holders"
      },
      "claimRewards(address[],address[],address[])": {
        "notice": "Claim reward accrued in iTokens by the holders"
      },
      "eligibilityManager()": {
        "notice": "the Eligibility Manager address where to query the eligibility of accounts"
      },
      "eligibleTotalBorrow(address)": {
        "notice": "the Eligible Total Borrow Balance of each iToken"
      },
      "eligibleTotalSupply(address)": {
        "notice": "the Eligible Total Supply of each iToken"
      },
      "isEligible(address)": {
        "notice": "the Elibility of each accounts"
      },
      "isRewardDistributorManager()": {
        "notice": "Ensure this is a RewardDistributorManager contract."
      }
    },
    "version": 1
  },
  "storageLayout": {
    "storage": [
      {
        "astId": 3401,
        "contract": "src/RewardDistributorManager.sol:RewardDistributorManager",
        "label": "_initialized",
        "offset": 0,
        "slot": "0",
        "type": "t_bool"
      },
      {
        "astId": 3423,
        "contract": "src/RewardDistributorManager.sol:RewardDistributorManager",
        "label": "owner",
        "offset": 1,
        "slot": "0",
        "type": "t_address_payable"
      },
      {
        "astId": 3426,
        "contract": "src/RewardDistributorManager.sol:RewardDistributorManager",
        "label": "pendingOwner",
        "offset": 0,
        "slot": "1",
        "type": "t_address_payable"
      },
      {
        "astId": 3558,
        "contract": "src/RewardDistributorManager.sol:RewardDistributorManager",
        "label": "__gap",
        "offset": 0,
        "slot": "2",
        "type": "t_array(t_uint256)50_storage"
      },
      {
        "astId": 4948,
        "contract": "src/RewardDistributorManager.sol:RewardDistributorManager",
        "label": "rewardDistributors",
        "offset": 0,
        "slot": "52",
        "type": "t_struct(AddressSet)325_storage"
      },
      {
        "astId": 4951,
        "contract": "src/RewardDistributorManager.sol:RewardDistributorManager",
        "label": "controller",
        "offset": 0,
        "slot": "54",
        "type": "t_contract(IController)3008"
      },
      {
        "astId": 4955,
        "contract": "src/RewardDistributorManager.sol:RewardDistributorManager",
        "label": "eligibilityManager",
        "offset": 0,
        "slot": "55",
        "type": "t_contract(IEligibilityManager)3032"
      },
      {
        "astId": 4960,
        "contract": "src/RewardDistributorManager.sol:RewardDistributorManager",
        "label": "isEligible",
        "offset": 0,
        "slot": "56",
        "type": "t_mapping(t_address,t_bool)"
      },
      {
        "astId": 4965,
        "contract": "src/RewardDistributorManager.sol:RewardDistributorManager",
        "label": "eligibleTotalSupply",
        "offset": 0,
        "slot": "57",
        "type": "t_mapping(t_address,t_uint256)"
      },
      {
        "astId": 4970,
        "contract": "src/RewardDistributorManager.sol:RewardDistributorManager",
        "label": "eligibleTotalBorrow",
        "offset": 0,
        "slot": "58",
        "type": "t_mapping(t_address,t_uint256)"
      }
    ],
    "types": {
      "t_address": {
        "encoding": "inplace",
        "label": "address",
        "numberOfBytes": "20"
      },
      "t_address_payable": {
        "encoding": "inplace",
        "label": "address payable",
        "numberOfBytes": "20"
      },
      "t_array(t_bytes32)dyn_storage": {
        "base": "t_bytes32",
        "encoding": "dynamic_array",
        "label": "bytes32[]",
        "numberOfBytes": "32"
      },
      "t_array(t_uint256)50_storage": {
        "base": "t_uint256",
        "encoding": "inplace",
        "label": "uint256[50]",
        "numberOfBytes": "1600"
      },
      "t_bool": {
        "encoding": "inplace",
        "label": "bool",
        "numberOfBytes": "1"
      },
      "t_bytes32": {
        "encoding": "inplace",
        "label": "bytes32",
        "numberOfBytes": "32"
      },
      "t_contract(IController)3008": {
        "encoding": "inplace",
        "label": "contract IController",
        "numberOfBytes": "20"
      },
      "t_contract(IEligibilityManager)3032": {
        "encoding": "inplace",
        "label": "contract IEligibilityManager",
        "numberOfBytes": "20"
      },
      "t_mapping(t_address,t_bool)": {
        "encoding": "mapping",
        "key": "t_address",
        "label": "mapping(address => bool)",
        "numberOfBytes": "32",
        "value": "t_bool"
      },
      "t_mapping(t_address,t_uint256)": {
        "encoding": "mapping",
        "key": "t_address",
        "label": "mapping(address => uint256)",
        "numberOfBytes": "32",
        "value": "t_uint256"
      },
      "t_mapping(t_bytes32,t_uint256)": {
        "encoding": "mapping",
        "key": "t_bytes32",
        "label": "mapping(bytes32 => uint256)",
        "numberOfBytes": "32",
        "value": "t_uint256"
      },
      "t_struct(AddressSet)325_storage": {
        "encoding": "inplace",
        "label": "struct EnumerableSetUpgradeable.AddressSet",
        "members": [
          {
            "astId": 324,
            "contract": "src/RewardDistributorManager.sol:RewardDistributorManager",
            "label": "_inner",
            "offset": 0,
            "slot": "0",
            "type": "t_struct(Set)10_storage"
          }
        ],
        "numberOfBytes": "64"
      },
      "t_struct(Set)10_storage": {
        "encoding": "inplace",
        "label": "struct EnumerableSetUpgradeable.Set",
        "members": [
          {
            "astId": 5,
            "contract": "src/RewardDistributorManager.sol:RewardDistributorManager",
            "label": "_values",
            "offset": 0,
            "slot": "0",
            "type": "t_array(t_bytes32)dyn_storage"
          },
          {
            "astId": 9,
            "contract": "src/RewardDistributorManager.sol:RewardDistributorManager",
            "label": "_indexes",
            "offset": 0,
            "slot": "1",
            "type": "t_mapping(t_bytes32,t_uint256)"
          }
        ],
        "numberOfBytes": "64"
      },
      "t_uint256": {
        "encoding": "inplace",
        "label": "uint256",
        "numberOfBytes": "32"
      }
    }
  }
}